:0300000002004CAF
:200008000000E2FBEAF2802C0000E0FBEAF08024E6B50202EBF62200E2B50202EBF22200DE
:20002800E0B50202EBF02230F6E0A88220F5D3EAC6F582228B822230F6E6A88220F5D980EE
:01004800CFE8
:1100A500C200C201C202C203C204C205C2060200499C
:030049000200B6FC
:2000B60012036D7F00BF0F0050139006E475F080C0071205DA1206BBD0070F80E89006EB3F
:2000D60075F0801205DA90070275F08012062E1206BB9006EF75F0801205DA9006F175F056
:2000F600801206633098031204F720052320062020A21D20A61A30A117E509450A600D1523
:200116000974FFB50902150AD2A7800CC2A78008D2A775092C750A0120050E20060B20A2AF
:2001360008C296C297C294C2959006EB75F0801205DA9006F175F08012062E309803120459
:20015600F720A421C200C2059006EF75F0801205DA9007CE75F08012062E1206A830983C75
:200176001204F78037D2009006EF75F0801205DA9007AC75F08012062E1206A8309803126D
:2001960004F730800C308109308206C205C202800BD2051203A93098031204F720A521C2F5
:2001B60001C2069006EF75F0801205DA9007DF75F08012062E1206A830983C1204F78037DC
:2001D600D2019006EF75F0801205DA9007BD75F08012062E1206A83098031204F730830C05
:2001F600308409308506C206C203800BD2061204503098031204F720A41E20A51B9006EFFC
:2002160075F0801205DA90071375F08012062E1206A83098031204F720A00312059530984E
:20023600031204F720A66E9006EB75F0801205DA90078A75F08012062E9006EF75F0801245
:2002560005DA90072475F08012062E1206A81206A8D296D297D294D2951206A8C296C29734
:20027600C294C2959006EF75F0801205DA90073575F08012062E1206A8D296D297D294D2A0
:20029600951206A8C296C297C294C29530A6FD3098031204F720A145D295D294D296C29756
:2002B6009006EB75F0801205DA90079B75F08012062E9006EF75F0801205DA90077975F0A4
:2002D6008012062E20A1082098051206A880F53098031204F7C295C294C296C2971206BB7E
:2002F6002005272006249006EB75F0801205DA9006F175F08012062E9006EF75F0801205C8
:20031600DA90071375F08012062E30A245D297C296200409D29520A004D204C2959006EB3A
:2003360075F0801205DA9007F075F08012062E9006EF75F0801205DA90080175F08012062E
:200356002E1206A81206A82004030200FAC2950200FAC2040200FA7590007580FF75A0FF94
:2003760075B0FFC296C297C294C295D2A7C204C202C203C200C201C205C20675081E7509F0
:200396002C750A01750B00758920758DFD759850D28E222000129006EB75F0801205DA9006
:2003B600072475F08012062E2082259006EF75F0801205DA90075775F08012062ED297C26B
:2003D60096C294200205D29502044DC29502044D2080259006EF75F0801205DA900746751E
:2003F600F08012062ED296C297200206D295D2948045C295C294803F2081239006EF75F09C
:20041600801205DA90076875F08012062ED297C296C294200204D295801DC2958019C20533
:20043600C20230A4129006EF75F0801205DA9007CE75F08012062E0206A82001129006EBAD
:2004560075F0801205DA90073575F08012062E2085259006EF75F0801205DA90075775F041
:200476008012062ED297C296C294200305D2950204F4C2950204F42083259006EF75F0807D
:200496001205DA90074675F08012062ED296C297200306D295D2948045C295C294803F2045
:2004B60084239006EF75F0801205DA90076875F08012062ED297C296C294200304D29580D5
:2004D6001DC2958019C206C20330A5129006EF75F0801205DA9007DF75F08012062E020681
:2004F600A8AF99C2988F9910990280FBBF00028032BF0102803CBF02028046BF030280553B
:20051600BF40028046BFAA02800ABFBB02800BBFFF5C805085A08202058C74C04580F5826E
:2005360002058CC007120595D0078F9910990280FB22C007120595D0078F9910990280FBC0
:2005560022C2A18F9910990280FB22D2018F9910990280FB22C007120595D0078F99109932
:200576000280FB228F9910990280FB02036D8F9910990280FB2285829910990280FB22D2DC
:2005960002D203D204C295C29422AF82740F5FF50DEFC4540FF50C22AF82E59054F04FF54D
:2005B60090D2871206BBC2870206BBAF82E59054F04FF590D28700C28700000000000000FD
:2005D60000D28722AD82AE83AFF07C00EC2DF9E43EFA8F0389828A838BF01206C4FB60265F
:2005F6000CC2868B82C007C006C005C0041205A0850C821205AE850D821205AED004D0055D
:20061600D006D00780C622D2861205A0850C821205C1850D820205C1AD82AE83AFF07C005E
:20063600EC2DF9E43EFA8F0389828A838BF01206C4FB60180C8B82C007C006C005C00412C1
:20065600061DD004D005D006D00780D422AD82AE83AFF07C00EC2DF9E43EFA8F0389828AC5
:20067600838BF01206C4FB601B0C8B82C007C006C005C00412061D12069BD004D005D0067E
:20069600D00780D1227F017EFF7DFFDDFEDEFADFF6227F087EFF7DFFDDFEDEFADFF6309807
:0E06B600030204F7227F077E0FDEFEDFFA222A
:2006E40020280C0106800001068000C0002041474E492050524F54454354494F4E002057F7
:20070400454C434F4D4520544F202E2E2E2E004649524520414C41524D2050414E454C0042
:20072400205A4F4E45202D20303120202020202000205A4F4E45202D203032202020202000
:20074400200020464952452044455445435445442020002053484F52542044455445435404
:2007640045442000204F50454E20444554454354454420200020414C4C205448452041522B
:2007840045412020200050414E454C2054455354494E47204F4E0020504C454153452045C5
:2007A40056414355415445005A4F4E452D2030312049534F4C415445005A4F4E452D203058
:2007C400322049534F4C415445005A4F4E452D203031204845414C544859005A4F4E452D30
:2007E400203032204845414C54485900202042415454455259204C4F5720202000204348CC
:0E08040045434B20414320535550504C590062
:06007B00E478FFF6D8FD59
:200059007900E94400601B7A00900812780175A000E493F2A308B8000205A0D9F4DAF27533
:02007900A0FFE6
:200081007800E84400600A790175A000E4F309D8FC7800E84400600C7900900001E4F0A37D
:0400A100D8FCD9FAB4
:0D004C007581201206E0E582600302004984
:1C06C40020F71430F6148883A88220F507E6A88375830022E280F7E49322E02245
:0406E00075820022FD
:00000001FF
