:0300000002004CAF
:100008000000E2FBEAF2802C0000E0FBEAF080242A
:10001800E6B50202EBF62200E2B50202EBF222009C
:10002800E0B50202EBF02230F6E0A88220F5D3EA30
:10003800C6F582228B822230F6E6A88220F5D98086
:01004800CFE8
:1000A500C200C201C202C203C204C205C2060200E6
:0100B5004901
:030049000200B6FC
:1000B60012048F7F00BF0F0050139007DF75F0808A
:1000C600C0071206A3120784D0070F80E89007E640
:1000D60075F0801206A39007FD75F0801206F712E0
:1000E60007849007EA75F0801206A39007EC75F076
:1000F6008012072C3098031205BE20052320062007
:1001060020A21D20A61A30A117E509450A600D1583
:100116000974FFB50902150AD2A7800CC2A7800888
:10012600D2A775092C750A019007E675F0801206AC
:10013600A39007EC75F0801206F73098031205BEFF
:1001460020A430C200C2059007EA75F0801206A30B
:100156009008C975F0801206F7750F0075100175C5
:10016600110075820112078D12077130983C120535
:10017600BE8037D2009007EA75F0801206A3900879
:10018600A775F0801206F71207713098031205BEA4
:1001960030800C308109308206C205C202800BD243
:1001A600051204D23098031205BE20A530C201C242
:1001B600069007EA75F0801206A39008DA75F080BB
:1001C6001206F7750F007510017511007582011280
:1001D600078D12077130983C1205BE8037D2019008
:1001E60007EA75F0801206A39008B875F08012062B
:1001F600F71207713098031205BE30830C3084095C
:10020600308506C206C203800BD206120548309816
:10021600031205BE20A42D20A52A9007EA75F080BA
:100226001206A390080E75F0801206F7750F00757A
:10023600100175110075820112078D120771309831
:10024600031205BE20A00312065C3098031205BEF9
:1002560030A6030202E69007E675F0801206A39028
:10026600088575F0801206F79007EA75F080120689
:10027600A390081F75F0801206F712077112077116
:10028600750F0175100075110175820012078D1228
:100296000771750F0075100175110075820112073F
:1002A6008D9007EA75F0801206A390083075F080ED
:1002B6001206F7120771750F017510007511017599
:1002C600820012078D120771750F007510017511E6
:1002D6000075820112078D30A6FD3098031205BE07
:1002E60020A153750F01751000751100758200125B
:1002F600078D9007E675F0801206A390089675F0B4
:10030600801206F79007EA75F0801206A39008742B
:1003160075F0801206F720A1082098051207718053
:10032600F53098031205BE750F00751001751100A2
:1003360075820112078D12078420053F20063C2096
:10034600A23920A43620A5339007E675F080120660
:10035600A39007EC75F0801206F79007EA75F08017
:100366001206A390080E75F0801206F7750F007539
:10037600100175110075820112078D2005182006DF
:100386001520A212750F00751001751100758201F6
:1003960012078D020423300503308006300637200D
:1003A6008334200206300503308009200317300607
:1003B60014208311750F01751000751100758200E8
:1003C60012078D8032750F00751000751100758249
:1003D6000112078D802130050630820C30810930EC
:1003E600061530850320840F750F007510017511F1
:1003F6000175820112078D30A223200411750F01A9
:1004060075100175110175820112078D800F750F28
:100416000075100175110175820112078D30A264F5
:10042600200425750F0175100175110175820112E1
:10043600078D20A022D204750F00751001751101D9
:1004460075820112078D800F750F007510017511E9
:100456000175820112078D9007E675F0801206A3DA
:100466009008EB75F0801206F79007EA75F0801297
:1004760006A39008FC75F0801206F71207711207A2
:10048600710200FAC2040200FA758920758DFD75A5
:100496009850D28E7580FF75A0FF75B0FF759000DD
:1004A600750F0075100175110075820112078DD246
:1004B600A7C204C202C203C200C201C205C20675B7
:1004C600081E75092C750A01750B00222000129072
:1004D60007E675F0801206A390081F75F0801206D5
:1004E600F72082149007EA75F0801206A39008524E
:1004F60075F0801206F780472080149007EA75F0A1
:10050600801206A390084175F0801206F78030200D
:1005160081149007EA75F0801206A390086375F0BF
:10052600801206F78019C205C20230A4129007EAAB
:1005360075F0801206A39008C975F0801206F702BE
:1005460007712001129007E675F0801206A3900845
:100556003075F0801206F72085149007EA75F08052
:100566001206A390085275F0801206F78047208382
:10057600149007EA75F0801206A390084175F08082
:100586001206F780302084149007EA75F080120670
:10059600A390086375F0801206F78019C206C2039D
:1005A60030A5129007EA75F0801206A39008DA7556
:1005B600F0801206F7020771AF99C2988F991099C9
:1005C6000280FBBF00028032BF0102803CBF0202F4
:1005D6008046BF03028055BF40028046BFAA028004
:1005E6000ABFBB02800BBFFF5C805085A08202065B
:1005F6005374C04580F582020653C00712065CD0CC
:10060600078F9910990280FB22C00712065CD0075B
:100616008F9910990280FB22C2A18F9910990280AE
:10062600FB22D2018F9910990280FB22C007120685
:100636005CD0078F9910990280FB228F991099023E
:1006460080FB02048F8F9910990280FB2285829984
:1006560010990280FB22D202D203D20422AF827406
:100666000F5FF50EEFC4540FF50D22AF82E50C5463
:10067600F0FE740F5F4EF590D287120784C2870290
:100686000784AF82E50C54F0FE740F5F4EF590D2EE
:100696008700C287000000000000000022AD82AE85
:1006A60083AFF07C00EC2DF9E43EFA8F0389828A51
:1006B600838BF01207BFFB60260CC2868B82C007B5
:1006C600C006C005C004120663850D821206718538
:1006D6000E82120671D004D005D006D00780C6223D
:1006E600D286120663850D82120688850E82020660
:1006F60088AD82AE83AFF07C00EC2DF9E43EFA8F34
:100706000389828A838BF01207BFFB60180C8B82E9
:10071600C007C006C005C0041206E6D004D005D046
:1007260006D00780D422AD82AE83AFF07C00EC2DDC
:10073600F9E43EFA8F0389828A838BF01207BFFBA6
:10074600601B0C8B82C007C006C005C0041206E6FB
:10075600120764D004D005D006D00780D1227F01CD
:100766007EFF7DFFDDFEDEFADFF6227F087EFF7D5F
:10077600FFDDFEDEFADFF63098030205BE227F07B4
:100786007E0FDEFEDFFA22AF82AE0FAD10AC11EFA8
:10079600C454F0FFEEC42354E04207ED030354C0F3
:1007A6004207EC0354804FF50C0207B2E590540F54
:0907B600FFE50C54F04FF5902210
:1007DF0020280C0106800001068000C00020414740
:1007EF004E492050524F54454354494F4E002057C5
:1007FF00454C434F4D4520544F202E2E2E2E004654
:10080F0049524520414C41524D2050414E454C00DC
:10081F00205A4F4E45202D203031202020202020DF
:10082F0000205A4F4E45202D2030322020202020EE
:10083F0020002046495245204445544543544544E1
:10084F002020002053484F525420444554454354D0
:10085F0045442000204F50454E20444554454354B5
:10086F00454420200020414C4C2054484520415203
:10087F0045412020200050414E454C2054455354B3
:10088F00494E47204F4E0020504C4541534520457F
:10089F0056414355415445005A4F4E452D20303156
:1008AF002049534F4C415445005A4F4E452D20304F
:1008BF00322049534F4C415445005A4F4E452D203D
:1008CF003031204845414C544859005A4F4E452D20
:1008DF00203032204845414C544859002020424195
:1008EF005454455259204C4F572020200020434844
:0E08FF0045434B20414320535550504C590067
:06007B00E478FFF6D8FD59
:100059007900E94400601B7A0090090D780175A0C8
:1000690000E493F2A308B8000205A0D9F4DAF27506
:02007900A0FFE6
:100081007800E84400600A790175A000E4F309D81A
:10009100FC7800E84400600C7900900001E4F0A3D2
:0400A100D8FCD9FAB4
:0D004C007581201207DBE582600302004988
:1007BF0020F71430F6148883A88220F507E6A88363
:1007CF0075830022E280F7E49322E02275820022F3
:00000001FF
