:0300000002004CAF
:200008000000E2FBEAF2802C0000E0FBEAF08024E6B50202EBF62200E2B50202EBF22200DE
:20002800E0B50202EBF02230F6E0A88220F5D3EAC6F582228B822230F6E6A88220F5D980EE
:01004800CFE8
:1100A500C200C201C202C203C204C205C2060200499C
:030049000200B6FC
:2000B6001205087F00BF0F00501390085C75F080C007120720120801D0070F80E89008631E
:2000D60075F08012072090087A75F08012077412080190086775F08012072090086975F0CA
:2000F600801207A930980312063B20052320062020A21D20A61A30A117E509450A600D1596
:200116000974FFB50902150AD2A7800CC2A78008D2A775092C750A0120051820061520A29B
:200136001290086375F08012072090086975F08012077430980312063B20A442C200308075
:200156003030812D30822AC205C20290086775F08012072090094675F08012077475110020
:2001760075120175130075820112080A1207EE8005D20512054F30983612063B8031D200A0
:2001960030802130811E30821BC205C20290086775F08012072090092475F08012077412F3
:2001B60007EE8005D20512054F30980312063B20A542C20130833030842D30852AC206C25D
:2001D6000390086775F08012072090095775F08012077475110075120175130075820112E7
:2001F600080A1207EE8005D2061205C530983612063B8031D20130832130841E30851BC28A
:2002160006C20390086775F08012072090093575F0801207741207EE8005D2061205C53030
:20023600980312063B20A42D20A52A90086775F08012072090088B75F080120774751100A2
:2002560075120175130075820112080A1207EE30980312063B20A0031206D93098031206A0
:200276003B30A60302030790086375F08012072090090275F08012077490086775F080122C
:20029600072090089C75F0801207741207EE1207EE75110175120075130175820012080ABB
:2002B6001207EE75110075120175130075820112080A90086775F0801207209008AD75F0A8
:2002D600801207741207EE75110175120075130175820012080A1207EE75110075120175B8
:2002F600130075820112080A30A6FD30980312063B20A15375110175120075130075820027
:2003160012080A90086375F08012072090091375F08012077490086775F0801207209008B7
:20033600F175F08012077420A1082098051207EE80F530980312063B75110075120175138E
:200356000075820112080A12080120053F20063C20A23920A43620A53390086375F08012AB
:20037600072090086975F08012077490086775F08012072090088B75F08012077475110095
:2003960075120175130075820112080A20051D20061A20A217751100751201751300758233
:2003B6000112080AE4F50DF50E02049C050DE4B50D02050EC374E8950D7403950E5005E496
:2003D600F50DF50EC3E50D94F4E50E940150047F0180027F0030050330800630063E208363
:2003F6003B20020630050330800920031A3006172083148F11751200751300758200C007E5
:2004160012080AD007805A751100751200751300758201C00712080AD00780453005063072
:20043600820C3081093006393085032084332002032005062003173006148F1175120175EF
:200456001301758201C00712080AD0078013751100751201751301758201C00712080AD0DB
:200476000730A2222004108F1175120175130175820112080A800F75110075120175130144
:2004960075820112080A30A26420042575110175120175130175820112080A20A022D2043F
:2004B60075110075120175130175820112080A800F75110075120175130175820112080A31
:2004D60090086375F08012072090096875F08012077490086775F08012072090097975F0E6
:2004F600801207741207EE1207EE0200FAC2040200FA758920758DFD759850D28E7580FF3F
:2005160075A0FF75B0FF75900075110075120175130075820112080AD2A7C204C202C2030E
:20053600C200C201C205C20675081E75092C750A01E4F50BF50DF50E22200012900863751F
:20055600F08012072090089C75F08012077420821490086775F0801207209008CF75F08017
:20057600120774804720801490086775F0801207209008BE75F08012077480302081149083
:20059600086775F0801207209008E075F0801207748019C205C20230A41290086775F080E0
:2005B60012072090094675F0801207740207EE20011290086375F0801207209008AD75F0AE
:2005D6008012077420851490086775F0801207209008CF75F0801207748047208314900833
:2005F6006775F0801207209008BE75F080120774803020841490086775F08012072090087B
:20061600E075F0801207748019C206C20330A51290086775F08012072090095775F0801261
:2006360007740207EEAF99C2988F9910990280FBBF00028032BF0102803CBF02028046BF09
:2006560003028055BF40028046BFAA02800ABFBB02800BBFFF5C805085A0820206D074C04A
:200676004580F5820206D0C0071206D9D0078F9910990280FB22C0071206D9D0078F99108A
:20069600990280FB22C2A18F9910990280FB22D2018F9910990280FB22C0071206D9D00767
:2006B6008F9910990280FB228F9910990280FB0205088F9910990280FB228582991099029C
:2006D60080FB22D202D203D20422AF82740F5FF510EFC4540FF50F22AF82E50C54F0FE749A
:2006F6000F5F4EF590D287120801C287020801AF82E50C54F0FE740F5F4EF590D28700C2A7
:2007160087000000000000000022AD82AE83AFF07C00EC2DF9E43EFA8F0389828A838BF04C
:2007360012083CFB60260CC2868B82C007C006C005C0041206E0850F821206EE8510821218
:2007560006EED004D005D006D00780C622D2861206E0850F82120705851082020705AD82F9
:20077600AE83AFF07C00EC2DF9E43EFA8F0389828A838BF012083CFB60180C8B82C007C05B
:2007960006C005C004120763D004D005D006D00780D422AD82AE83AFF07C00EC2DF9E43EBD
:2007B600FA8F0389828A838BF012083CFB601B0C8B82C007C006C005C0041207631207E193
:2007D600D004D005D006D00780D1227F017EFF7DFFDDFEDEFADFF6227F087EFF7DFFDDFEBC
:2007F600DEFADFF630980302063B227F077E0FDEFEDFFA22AF82AE11AD12AC13EFC454F0B7
:20081600FFEEC42354E04207ED030354C04207EC0354804FF50C02082FE590540FFFE50C0D
:0608360054F04FF5902282
:20085C0020280C0106800001068000C0002041474E492050524F54454354494F4E0020577D
:20087C00454C434F4D4520544F202E2E2E2E004649524520414C41524D2050414E454C00C9
:20089C00205A4F4E45202D20303120202020202000205A4F4E45202D203032202020202087
:2008BC00200020464952452044455445435445442020002053484F5254204445544543548B
:2008DC0045442000204F50454E20444554454354454420200020414C4C20544845204152B2
:2008FC0045412020200050414E454C2054455354494E47204F4E0020504C4541534520454C
:20091C0056414355415445005A4F4E452D2030312049534F4C415445005A4F4E452D2030DE
:20093C00322049534F4C415445005A4F4E452D203031204845414C544859005A4F4E452DB6
:20095C00203032204845414C54485900202042415454455259204C4F572020200020434852
:0E097C0045434B20414320535550504C5900E9
:06007B00E478FFF6D8FD59
:200059007900E94400601B7A0090098A780175A000E493F2A308B8000205A0D9F4DAF275BA
:02007900A0FFE6
:200081007800E84400600A790175A000E4F309D8FC7800E84400600C7900900001E4F0A37D
:0400A100D8FCD9FAB4
:0D004C00758120120858E58260030200490A
:1C083C0020F71430F6148883A88220F507E6A88375830022E280F7E49322E022CB
:040858007582002283
:00000001FF
