:0300000002004CAF
:100008000000E2FBEAF2802C0000E0FBEAF080242A
:10001800E6B50202EBF62200E2B50202EBF222009C
:10002800E0B50202EBF02230F6E0A88220F5D3EA30
:10003800C6F582228B822230F6E6A88220F5D98086
:01004800CFE8
:1000A500C200C201C202C203C204C205C2060200E6
:0100B5004901
:030049000200B6FC
:1000B6001203C57F00BF0F00501390071675F0801E
:1000C600C00712060C1206EDD0070F80E890071D38
:1000D60075F08012060C90073475F08012066012D7
:1000E60006ED90072175F08012060C90072375F037
:1000F600801206953098031205232005232006203A
:1001060020A21D20A61A30A117E509450A600D1583
:100116000974FFB50902150AD2A7800CC2A7800888
:10012600D2A775092C750A0190071D75F080120675
:100136000C90072375F08012066030980312052391
:1001460020A429C200C20590072175F08012060C72
:1001560090080075F080120660D294D296C297C2BB
:10016600951206DA30983C1205238037D2009007A4
:100176002175F08012060C9007DE75F0801206607D
:100186001206DA30980312052330800C30810930CC
:100196008206C205C202800BD20512040130980302
:1001A60012052320A529C201C20690072175F080F9
:1001B60012060C90081175F080120660D294D29641
:1001C600C297C2951206DA30983C1205238037D2C0
:1001D6000190072175F08012060C9007EF75F080EC
:1001E6001206601206DA30980312052330830C30AB
:1001F6008409308506C206C203800BD20612049219
:1002060030980312052320A42620A52390072175E4
:10021600F08012060C90074575F080120660D294A5
:10022600D296C297C2951206DA3098031205232099
:10023600A0031205C130980312052320A66E90076D
:100246001D75F08012060C9007BC75F080120660D2
:1002560090072175F08012060C90075675F08012F3
:1002660006601206DA1206DAC296D297C294D295C0
:100276001206DAD296C297D294C29590072175F0EB
:100286008012060C90076775F0801206601206DA77
:10029600C296D297C294D2951206DAD296C297D255
:1002A60094C29530A6FD30980312052320A145D2AD
:1002B60095C294C296C29790071D75F08012060CDF
:1002C6009007CD75F08012066090072175F08012B8
:1002D600060C9007AB75F08012066020A1082098E6
:1002E600051206DA80F5309803120523C295D294DA
:1002F600D296C2971206ED20053220062F20A22C98
:1003060090071D75F08012060C90072375F0801279
:10031600066090072175F08012060C90074575F06F
:1003260080120660D294D296C297C29520051020FC
:10033600060D20A20AD296C297D294C29580332087
:100346000503300624208003200506208315300689
:1003560012C296C297200207200304C294800AD2D2
:10036600948006D296D297D29430A206D297D2968D
:10037600D29430A245D297D296200409D29520A0D5
:1003860004D204C29590071D75F08012060C9008E1
:100396002275F08012066090072175F08012060C17
:1003A60090083375F0801206601206DA1206DA201B
:1003B60004030200FAC2950200FAC2040200FA75AA
:1003C6008920758DFD759850D28E7580FF75A0FFBA
:1003D60075B0FF759090D294C295D296C297D2A767
:1003E600C204C202C203C200C201C205C206750827
:1003F6001E75092C750A01750B0022200012900744
:100406001D75F08012060C90075675F08012066076
:1004160020821D90072175F08012060C90078975C1
:10042600F080120660200204D295805DC295805944
:1004360020801D90072175F08012060C90077875B4
:10044600F080120660200204D295803DC295803964
:1004560020811D90072175F08012060C90079A7571
:10046600F080120660200204D295801DC295801984
:10047600C205C20230A41290072175F08012060C44
:1004860090080075F0801206600206DA20011290CC
:10049600071D75F08012060C90076775F08012062E
:1004A6006020851D90072175F08012060C90078943
:1004B60075F080120660200304D295805DC2958097
:1004C6005920831D90072175F08012060C9007783D
:1004D60075F080120660200304D295803DC2958097
:1004E6003920841D90072175F08012060C90079A1A
:1004F60075F080120660200304D295801DC2958097
:1005060019C206C20330A51290072175F0801206A3
:100516000C90081175F0801206600206DAAF99C2D7
:10052600988F9910990280FBBF00028032BF0102AA
:10053600803CBF02028046BF03028055BF40028056
:1005460046BFAA02800ABFBB02800BBFFF5C805079
:1005560085A0820205B874C04580F5820205B8C040
:10056600071205C1D0078F9910990280FB22C00798
:100576001205C1D0078F9910990280FB22C2A18F64
:100586009910990280FB22D2018F9910990280FB63
:1005960022C0071205C1D0078F9910990280FB224D
:1005A6008F9910990280FB0203C58F9910990280DA
:1005B600FB2285829910990280FB22D202D203D2B5
:1005C60004C295D29422AF82740F5FF50DEFC45426
:1005D6000FF50C22AF82E59054F0FE740F5F4EF5D6
:1005E60090D2871206EDC2870206EDAF82E59054DF
:1005F600F0FE740F5F4EF590D28700C287000000B0
:10060600000000000022AD82AE83AFF07C00EC2D2E
:10061600F9E43EFA8F0389828A838BF01206F6FB91
:1006260060260CC2868B82C007C006C005C00412B5
:1006360005CC850C821205DA850D821205DAD00406
:10064600D005D006D00780C622D2861205CC850CEE
:10065600821205F1850D820205F1AD82AE83AFF0FF
:100666007C00EC2DF9E43EFA8F0389828A838BF0B5
:100676001206F6FB60180C8B82C007C006C005C0C8
:100686000412064FD004D005D006D00780D422AD80
:1006960082AE83AFF07C00EC2DF9E43EFA8F03893D
:1006A600828A838BF01206F6FB601B0C8B82C007D6
:1006B600C006C005C00412064F1206CDD004D005F0
:1006C600D006D00780D1227F017EFF7DFFDDFEDED2
:1006D600FADFF6227F087EFF7DFFDDFEDEFADFF61B
:1006E600309803020523227F077E0FDEFEDFFA2203
:1007160020280C0106800001068000C00020414709
:100726004E492050524F54454354494F4E0020578E
:10073600454C434F4D4520544F202E2E2E2E00461D
:1007460049524520414C41524D2050414E454C00A6
:10075600205A4F4E45202D203031202020202020A9
:1007660000205A4F4E45202D2030322020202020B8
:1007760020002046495245204445544543544544AB
:100786002020002053484F5254204445544543549A
:1007960045442000204F50454E204445544543547F
:1007A600454420200020414C4C20544845204152CD
:1007B60045412020200050414E454C20544553547D
:1007C600494E47204F4E0020504C45415345204549
:1007D60056414355415445005A4F4E452D20303120
:1007E6002049534F4C415445005A4F4E452D203019
:1007F600322049534F4C415445005A4F4E452D2007
:100806003031204845414C544859005A4F4E452DE9
:10081600203032204845414C54485900202042415E
:100826005454455259204C4F57202020002043480D
:0E08360045434B20414320535550504C590030
:06007B00E478FFF6D8FD59
:100059007900E94400601B7A00900844780175A092
:1000690000E493F2A308B8000205A0D9F4DAF27506
:02007900A0FFE6
:100081007800E84400600A790175A000E4F309D81A
:10009100FC7800E84400600C7900900001E4F0A3D2
:0400A100D8FCD9FAB4
:0D004C00758120120712E582600302004951
:1006F60020F71430F6148883A88220F507E6A8832D
:1007060075830022E280F7E49322E02275820022BC
:00000001FF
