:0300000002004CAF
:100008000000E2FBEAF2802C0000E0FBEAF080242A
:10001800E6B50202EBF62200E2B50202EBF222009C
:10002800E0B50202EBF02230F6E0A88220F5D3EA30
:10003800C6F582228B822230F6E6A88220F5D98086
:01004800CFE8
:1000A500C200C201C202C203C204C205C2060200E6
:0100B5004901
:030049000200B6FC
:1000B60012034C7F00BF0F0050139006F175F080BD
:1000C600C0071205E71206C8D0070F80E89006F8A9
:1000D60075F0801205E790070F75F08012063B1247
:1000E60006C89006FC75F0801205E79006FE75F0CE
:1000F600801206703098031205049006F875F08099
:100106001205E79006FE75F08012063B3098031242
:10011600050420A421C200C2059006FC75F08012D9
:1001260005E79007DB75F08012063B1206B530989E
:100136003E1205048039D2009006FC75F080120547
:10014600E79007B975F08012063B1206B5309803A2
:1001560012050430800C308109308206C205C202C5
:10016600800DD205D2A7120382309803120504200F
:10017600A521C201C2069006FC75F0801205E79023
:1001860007EC75F08012063B1206B530983E120554
:10019600048039D2019006FC75F0801205E79007BD
:1001A600CA75F08012063B1206B530980312050494
:1001B60030830C308409308506C206C203800DD216
:1001C60006D2A712044330980312050420A41E2069
:1001D600A51B9006FC75F0801205E790072075F0C8
:1001E6008012063B1206B530980312050420050E50
:1001F60020060B30A208C296C297C294C29520A0D0
:10020600031205A230980312050420A670D2A79007
:1002160006F875F0801205E790079775F0801206CC
:100226003B9006FC75F0801205E790073175F0806B
:1002360012063B1206B51206B5D296D297D294D2C2
:10024600951206B5C296C297C294C2959006FC75E1
:10025600F0801205E790074275F08012063B120601
:10026600B5D296D297D294D2951206B5C296C297B7
:10027600C294C29530A6FD30980312050420A1430E
:10028600D2A7D295D294D2969006F875F080120530
:10029600E79007A875F08012063B9006FC75F08083
:1002A6001205E790078675F08012063B20A108200C
:1002B60098051206B580F5309803120504C295C25A
:1002C60094C2961206C82005272006249006F875C3
:1002D600F0801205E79006FE75F08012063B900648
:1002E600FC75F0801205E790072075F08012063B3A
:1002F600E5086005D50802C2A720A245D2972004CA
:1003060009D29520A004D204C295D2A79006F8750A
:10031600F0801205E79007FD75F08012063B900607
:10032600FC75F0801205E790080E75F08012063B0A
:100336001206B51206B52004030200FAC2950200A1
:10034600FAC2040200FA7590007580FF75A0FF7569
:10035600B0FFC296C297C294C295C2A7C204C20297
:10036600C203C200C201C205C20675081E75090095
:10037600758920758DFD759850D28E2220001290B9
:1003860006F875F0801205E790073175F0801206C1
:100396003B2082259006FC75F0801205E7900764E5
:1003A60075F08012063BD297C296C294200205D2FF
:1003B60095020440C29502044020802E9006FC75EA
:1003C600F0801205E790075375F08012063BD2962F
:1003D600308308308405308502C297200206D29504
:1003E600D2948056C295C29480502081239006FCF8
:1003F60075F0801205E790077575F08012063BD2FE
:1004060097C296C294200204D295802EC295802A65
:10041600C205C20230830E30840B308508C297C2F3
:1004260096C294C29530A4129006FC75F08012050F
:10043600E79007DB75F08012063B0206B520011235
:100446009006F875F0801205E790074275F0801265
:10045600063B2085259006FC75F0801205E790077F
:100466006475F08012063BD297C296C294200305AB
:10047600D295020501C29502050120832E9006FC45
:1004860075F0801205E790075375F08012063BD28F
:1004960096308008308105308202C297200306D24A
:1004A60095D2948056C295C294805020842390069B
:1004B600FC75F0801205E790077575F08012063B13
:1004C600D297C296C294200304D295802EC29580FC
:1004D6002AC206C20330800E30810B308208C297D2
:1004E600C296C294C29530A5129006FC75F0801291
:1004F60005E79007EC75F08012063B0206B5AF994A
:10050600C2988F9910990280FBBF00028032BF010A
:1005160002803CBF02028046BF03028055BF4002F4
:100526008046BFAA02800ABFBB02800BBFFF5C8069
:100536005085A08202059974C04580F5820205990E
:10054600C0071205A2D0078F9910990280FB22C01E
:10055600071205A2D0078F9910990280FB22C2A12B
:100566008F9910990280FB22D2018F9910990280EF
:10057600FB22C0071205A2D0078F9910990280FBB3
:10058600228F9910990280FB02034C8F99109902D1
:1005960080FB2285829910990280FB22D202D20327
:1005A600D204C295C29422AF82740F5FF50BEFC4DA
:1005B600540FF50A22AF82E59054F04FF590D2879A
:1005C6001206C8C2870206C8AF82E59054F04FF5FE
:1005D60090D28700C2870000000000000000D2878A
:1005E60022AD82AE83AFF07C00EC2DF9E43EFA8FAB
:1005F6000389828A838BF01206D1FB60260CC286A1
:100606008B82C007C006C005C0041205AD850A82EC
:100616001205BB850B821205BBD004D005D006D0CF
:100626000780C622D2861205AD850A821205CE85BE
:100636000B820205CEAD82AE83AFF07C00EC2DF9C5
:10064600E43EFA8F0389828A838BF01206D1FB601F
:10065600180C8B82C007C006C005C00412062AD03B
:1006660004D005D006D00780D422AD82AE83AFF089
:100676007C00EC2DF9E43EFA8F0389828A838BF0A5
:100686001206D1FB601B0C8B82C007C006C005C0DA
:100696000412062A1206A8D004D005D006D0078078
:1006A600D1227F017EFF7DFFDDFEDEFADFF6227FAF
:1006B600087EFF7DFFDDFEDEFADFF63098030205D9
:0B06C60004227F077E0FDEFEDFFA2219
:1006F10020280C0106800001068000C0002041472F
:100701004E492050524F54454354494F4E002057B3
:10071100454C434F4D4520544F202E2E2E2E004642
:1007210049524520414C41524D2050414E454C00CB
:10073100205A4F4E45202D203031202020202020CE
:1007410000205A4F4E45202D2030322020202020DD
:1007510020002046495245204445544543544544D0
:100761002020002053484F525420444554454354BF
:1007710045442000204F50454E20444554454354A4
:10078100454420200020414C4C20544845204152F2
:1007910045412020200050414E454C2054455354A2
:1007A100494E47204F4E0020504C4541534520456E
:1007B10056414355415445005A4F4E452D20303145
:1007C1002049534F4C415445005A4F4E452D20303E
:1007D100322049534F4C415445005A4F4E452D202C
:1007E1003031204845414C544859005A4F4E452D0F
:1007F100203032204845414C544859002020424184
:100801005454455259204C4F572020200020434832
:0E08110045434B20414320535550504C590055
:06007B00E478FFF6D8FD59
:100059007900E94400601B7A0090081F780175A0B7
:1000690000E493F2A308B8000205A0D9F4DAF27506
:02007900A0FFE6
:100081007800E84400600A790175A000E4F309D81A
:10009100FC7800E84400600C7900900001E4F0A3D2
:0400A100D8FCD9FAB4
:0D004C007581201206EDE582600302004977
:1006D10020F71430F6148883A88220F507E6A88352
:1006E10075830022E280F7E49322E02275820022E2
:00000001FF
