:0300000002004CAF
:100008000000E2FBEAF2802C0000E0FBEAF080242A
:10001800E6B50202EBF62200E2B50202EBF222009C
:10002800E0B50202EBF02230F6E0A88220F5D3EA30
:10003800C6F582228B822230F6E6A88220F5D98086
:01004800CFE8
:1000A500C200C201C202C203C204C205C2060200E6
:0100B5004901
:030049000200B6FC
:1000B6001204D37F00BF0F00501390082675F080FE
:1000C600C0071206EA1207CBD0070F80E890082D6A
:1000D60075F0801206EA90084475F08012073E1209
:1000E60007CB90083175F0801206EA90083375F058
:1000F6008012077330980312060520052320062078
:1001060020A21D20A61A30A117E509450A600D1583
:100116000974FFB50902150AD2A7800CC2A7800888
:10012600D2A775092C750A0190082D75F080120664
:10013600EA90083375F08012073E309803120605E0
:1001460020A430C200C20590083175F0801206EA7C
:1001560090091075F08012073E7510007511017533
:1001660012007582011207D41207B830983C1206A5
:10017600058037D20090083175F0801206EA9008A3
:10018600EE75F08012073E1207B830980312060586
:1001960030800C308109308206C205C202800BD243
:1001A6000512051930980312060520A530C201C2B2
:1001B6000690083175F0801206EA90092175F080E4
:1001C60012073E7510007511017512007582011235
:1001D60007D41207B830983C1206058037D2019032
:1001E600083175F0801206EA9008FF75F080120754
:1001F6003E1207B830980312060530830C30840986
:10020600308506C206C203800BD20612058F3098CF
:100216000312060520A42D20A52A90083175F0802A
:100226001206EA90085575F08012073E75100075A3
:1002360011017512007582011207D41207B83098A1
:100246000312060520A0031206A330980312060522
:1002560030A6030202E690082D75F0801206EA9099
:1002660008CC75F08012073E90083175F0801206B2
:10027600EA90086675F08012073E1207B81207B8B2
:100286007510017511007512017582001207D412DE
:1002960007B87510007511017512007582011207F5
:1002A600D490083175F0801206EA90087775F080D0
:1002B60012073E1207B87510017511007512017507
:1002C60082001207D41207B8751000751101751255
:1002D600007582011207D430A6FD30980312060578
:1002E60020A1537510017511007512007582001258
:1002F60007D490082D75F0801206EA9008DD75F097
:100306008012073E90083175F0801206EA9008BB0D
:1003160075F08012073E20A1082098051207B880C4
:10032600F530980312060575100075110175120057
:100336007582011207D41207CB20053F20063C2008
:10034600A23920A43620A53390082D75F080120618
:10035600EA90083375F08012073E90083175F080F8
:100366001206EA90085575F08012073E7510007562
:1003760011017512007582011207D420051B200693
:100386001820A215751000751101751200758201ED
:100396001207D4750D00020467050DE50D24AF5054
:1003A60003750D0074CE250D40047F0180027F0089
:1003B60030050330800630063E20833B200206309F
:1003C600050330800920031A3006172083148F1086
:1003D600751100751200758200C0071207D4D00788
:1003E600805A751000751100751200758201C007DC
:1003F6001207D4D007804530050630820C308109BB
:100406003006393085032084332002032005062078
:1004160003173006148F10751101751201758201CC
:10042600C0071207D4D00780137510007511017527
:100436001201758201C0071207D4D00730A222200C
:1004460004108F107511017512017582011207D4FF
:10045600800F751000751101751201758201120762
:10046600D430A2642004257510017511017512019E
:100476007582011207D420A022D2047510007511CE
:10048600017512017582011207D4800F751000756F
:1004960011017512017582011207D490082D75F0AD
:1004A600801206EA90093275F08012073E900831F4
:1004B60075F0801206EA90094375F08012073E1225
:1004C60007B81207B80200FAC2040200FA758920BA
:1004D600758DFD759850D28E7580FF75A0FF75B02D
:1004E600FF75900075100075110175120075820177
:1004F6001207D4D2A7C204C202C203C200C201C2FA
:1005060005C20675081E75092C750A01750B00755E
:100516000D002220001290082D75F0801206EA9038
:10052600086675F08012073E20821490083175F037
:10053600801206EA90089975F08012073E804720DF
:10054600801490083175F0801206EA90088875F0DC
:100556008012073E803020811490083175F0801299
:1005660006EA9008AA75F08012073E8019C205C2F5
:100576000230A41290083175F0801206EA90091034
:1005860075F08012073E0207B820011290082D75FB
:10059600F0801206EA90087775F08012073E2085F3
:1005A6001490083175F0801206EA90089975F0806B
:1005B60012073E804720831490083175F08012069A
:1005C600EA90088875F08012073E803020841490E7
:1005D600083175F0801206EA9008AA75F0801207B5
:1005E6003E8019C206C20330A51290083175F0800C
:1005F6001206EA90092175F08012073E0207B8AF8D
:1006060099C2988F9910990280FBBF00028032BF71
:100616000102803CBF02028046BF03028055BF40F4
:10062600028046BFAA02800ABFBB02800BBFFF5CE6
:10063600805085A08202069A74C04580F582020623
:100646009AC0071206A3D0078F9910990280FB2241
:10065600C0071206A3D0078F9910990280FB22C209
:10066600A18F9910990280FB22D2018F99109902CD
:1006760080FB22C0071206A3D0078F99109902802B
:10068600FB228F9910990280FB0204D38F9910994F
:100696000280FB2285829910990280FB22D202D227
:1006A60003D20422AF82740F5FF50FEFC4540FF527
:1006B6000E22AF82E50C54F0FE740F5F4EF590D219
:1006C600871207CBC2870207CBAF82E50C54F0FE38
:1006D600740F5F4EF590D28700C2870000000000BD
:1006E60000000022AD82AE83AFF07C00EC2DF9E471
:1006F6003EFA8F0389828A838BF0120806FB6026F6
:100706000CC2868B82C007C006C005C0041206AAAA
:10071600850E821206B8850F821206B8D004D0055F
:10072600D006D00780C622D2861206AA850E82126D
:1007360006CF850F820206CFAD82AE83AFF07C0076
:10074600EC2DF9E43EFA8F0389828A838BF0120836
:1007560006FB60180C8B82C007C006C005C00412D9
:10076600072DD004D005D006D00780D422AD82AEA6
:1007760083AFF07C00EC2DF9E43EFA8F0389828A80
:10078600838BF0120806FB601B0C8B82C007C00629
:10079600C005C00412072D1207ABD004D005D00641
:1007A600D00780D1227F017EFF7DFFDDFEDEFADFEE
:1007B600F6227F087EFF7DFFDDFEDEFADFF630984B
:1007C60003020605227F077E0FDEFEDFFA22AF82D6
:1007D600AE10AD11AC12EFC454F0FFEEC42354E0DA
:1007E6004207ED030354C04207EC0354804FF50C57
:1007F6000207F9E590540FFFE50C54F04FF59022EF
:1008260020280C0106800001068000C000204147F8
:100836004E492050524F54454354494F4E0020577D
:10084600454C434F4D4520544F202E2E2E2E00460C
:1008560049524520414C41524D2050414E454C0095
:10086600205A4F4E45202D20303120202020202098
:1008760000205A4F4E45202D2030322020202020A7
:10088600200020464952452044455445435445449A
:100896002020002053484F52542044455445435489
:1008A60045442000204F50454E204445544543546E
:1008B600454420200020414C4C20544845204152BC
:1008C60045412020200050414E454C20544553546C
:1008D600494E47204F4E0020504C45415345204538
:1008E60056414355415445005A4F4E452D2030310F
:1008F6002049534F4C415445005A4F4E452D203008
:10090600322049534F4C415445005A4F4E452D20F5
:100916003031204845414C544859005A4F4E452DD8
:10092600203032204845414C54485900202042414D
:100936005454455259204C4F5720202000204348FC
:0E09460045434B20414320535550504C59001F
:06007B00E478FFF6D8FD59
:100059007900E94400601B7A00900954780175A081
:1000690000E493F2A308B8000205A0D9F4DAF27506
:02007900A0FFE6
:100081007800E84400600A790175A000E4F309D81A
:10009100FC7800E84400600C7900900001E4F0A3D2
:0400A100D8FCD9FAB4
:0D004C00758120120822E582600302004940
:1008060020F71430F6148883A88220F507E6A8831B
:1008160075830022E280F7E49322E02275820022AB
:00000001FF
