:0300000002004CAF
:100008000000E2FBEAF2802C0000E0FBEAF080242A
:10001800E6B50202EBF62200E2B50202EBF222009C
:10002800E0B50202EBF02230F6E0A88220F5D3EA30
:10003800C6F582228B822230F6E6A88220F5D98086
:01004800CFE8
:1000A500C200C201C202C203C204C205C2060200E6
:0100B5004901
:030049000200B6FC
:1000B6001203577F00BF0F0050139006FC75F080A7
:1000C600C0071205F21206D3D0070F80E890070387
:1000D60075F0801205F290071A75F0801206461226
:1000E60006D390070775F0801205F290070975F0A0
:1000F6008012067B30980312050F90070375F08077
:100106001205F290070975F0801206463098031220
:10011600050F20A421C200C20590070775F08012C2
:1001260005F29007E675F0801206461206C0309872
:100136003E12050F8039D20090070775F080120530
:10014600F29007C475F0801206461206C030980376
:1001560012050F30800C308109308206C205C202BA
:10016600800DD205D2A712038D30980312050F20F9
:10017600A521C201C20690070775F0801205F2900C
:1001860007F775F0801206461206C030983E120533
:100196000F8039D20190070775F0801205F290079B
:1001A600D575F0801206461206C030980312050F68
:1001B60030830C308409308506C206C203800DD216
:1001C60006D2A712044E30980312050F20A41E2053
:1001D600A51B90070775F0801205F290072B75F0A6
:1001E600801206461206C030980312050F20050B32
:1001F600200608C296C297C294C29520A003120593
:10020600AD30980312050F20A670D2A7900703758C
:10021600F0801205F29007A275F08012064690074C
:100226000775F0801205F290073C75F080120646BD
:100236001206C01206C0D296D297D294D295120652
:10024600C0C296C297C294C29590070775F08012F5
:1002560005F290074D75F0801206461206C0D2963A
:10026600D297D294D2951206C0C296C297C294C2B1
:100276009530A6FD30980312050F20A143D2A7D2D0
:1002860095D294D29690070375F0801205F29007E6
:10029600B375F08012064690070775F0801205F2D6
:1002A60090079175F08012064620A1082098051245
:1002B60006C080F530980312050FC295C294C29607
:1002C6001206D320052720062490070375F0801216
:1002D60005F290070975F08012064690070775F03B
:1002E600801205F290072B75F080120646E508602D
:1002F60005D50802C2A720A245D297200409D295A7
:1003060020A004D204C295D2A790070375F08012EC
:1003160005F290080875F08012064690070775F0FA
:10032600801205F290081975F0801206461206C072
:100336001206C02004030200FAC2950200FAC204A3
:100346003005030200FA3006030200FAC2970200E3
:10035600FA7590007580FF75A0FF75B0FFC296C252
:1003660097C294C295C2A7C204C202C203C200C207
:1003760001C205C20675081E750900758920758DAE
:10038600FD759850D28E2220001290070375F080DA
:100396001205F290073C75F08012064620822590E1
:1003A600070775F0801205F290076F75F080120648
:1003B60046D297C296C294200205D29502044BC239
:1003C6009502044B20802E90070775F0801205F2E7
:1003D60090075E75F080120646D296308308308408
:1003E60005308502C297200206D295D2948056C265
:1003F60095C294805020812390070775F0801205DE
:10040600F290078075F080120646D297C296C29483
:10041600200204D295802EC295802AC205C20230DF
:10042600830E30840B308508C297C296C294C2955B
:1004360030A41290070775F0801205F29007E67552
:10044600F0801206460206C020011290070375F0DE
:10045600801205F290074D75F0801206462085251C
:1004660090070775F0801205F290076F75F08012FD
:100476000646D297C296C294200305D29502050C71
:10048600C29502050C20832E90070775F080120591
:10049600F290075E75F080120646D29630800830DC
:1004A6008105308202C297200306D295D2948056E7
:1004B600C295C294805020842390070775F080125D
:1004C60005F290078075F080120646D297C296C252
:1004D60094200304D295802EC295802AC206C203B8
:1004E60030800E30810B308208C297C296C294C209
:1004F6009530A51290070775F0801205F29007F760
:1005060075F0801206460206C0AF99C2988F991000
:10051600990280FBBF00028032BF0102803CBF020D
:10052600028046BF03028055BF40028046BFAA0232
:10053600800ABFBB02800BBFFF5C805085A0820291
:1005460005A474C04580F5820205A4C0071205AD56
:10055600D0078F9910990280FB22C0071205ADD0F3
:10056600078F9910990280FB22C2A18F99109902D8
:1005760080FB22D2018F9910990280FB22C00712BC
:1005860005ADD0078F9910990280FB228F9910999B
:100596000280FB0203578F9910990280FB22858205
:1005A6009910990280FB22D202D203D204C295C2CC
:1005B6009422AF82740F5FF50BEFC4540FF50A2235
:1005C600AF82E59054F04FF590D2871206D3C287DA
:1005D6000206D3AF82E59054F04FF590D28700C261
:1005E600870000000000000000D28722AD82AE83A3
:1005F600AFF07C00EC2DF9E43EFA8F0389828A8302
:100606008BF01206DCFB60260CC2868B82C007C00C
:1006160006C005C0041205B8850A821205C6850BF8
:10062600821205C6D004D005D006D00780C622D2D5
:10063600861205B8850A821205D9850B820205D96C
:10064600AD82AE83AFF07C00EC2DF9E43EFA8F0369
:1006560089828A838BF01206DCFB60180C8B82C0C1
:1006660007C006C005C004120635D004D005D00662
:10067600D00780D422AD82AE83AFF07C00EC2DF99A
:10068600E43EFA8F0389828A838BF01206DCFB60D4
:100696001B0C8B82C007C006C005C00412063512AB
:1006A60006B3D004D005D006D00780D1227F017EC4
:1006B600FF7DFFDDFEDEFADFF6227F087EFF7DFF8F
:1006C600DDFEDEFADFF630980302050F227F077E95
:0606D6000FDEFEDFFA2238
:1006FC0020280C0106800001068000C00020414724
:10070C004E492050524F54454354494F4E002057A8
:10071C00454C434F4D4520544F202E2E2E2E004637
:10072C0049524520414C41524D2050414E454C00C0
:10073C00205A4F4E45202D203031202020202020C3
:10074C0000205A4F4E45202D2030322020202020D2
:10075C0020002046495245204445544543544544C5
:10076C002020002053484F525420444554454354B4
:10077C0045442000204F50454E2044455445435499
:10078C00454420200020414C4C20544845204152E7
:10079C0045412020200050414E454C205445535497
:1007AC00494E47204F4E0020504C45415345204563
:1007BC0056414355415445005A4F4E452D2030313A
:1007CC002049534F4C415445005A4F4E452D203033
:1007DC00322049534F4C415445005A4F4E452D2021
:1007EC003031204845414C544859005A4F4E452D04
:1007FC00203032204845414C544859002020424179
:10080C005454455259204C4F572020200020434827
:0E081C0045434B20414320535550504C59004A
:06007B00E478FFF6D8FD59
:100059007900E94400601B7A0090082A780175A0AC
:1000690000E493F2A308B8000205A0D9F4DAF27506
:02007900A0FFE6
:100081007800E84400600A790175A000E4F309D81A
:10009100FC7800E84400600C7900900001E4F0A3D2
:0400A100D8FCD9FAB4
:0D004C007581201206F8E58260030200496C
:1006DC0020F71430F6148883A88220F507E6A88347
:1006EC0075830022E280F7E49322E02275820022D7
:00000001FF
