:0300000002004CAF
:200008000000E2FBEAF2802C0000E0FBEAF08024E6B50202EBF62200E2B50202EBF22200DE
:20002800E0B50202EBF02230F6E0A88220F5D3EAC6F582228B822230F6E6A88220F5D980EE
:01004800CFE8
:1100A500C200C201C202C203C204C205C2060200499C
:030049000200B6FC
:2000B60012036F7F00BF0F0050139006E675F080C0071205DC1206BDD0070F80E89006ED35
:2000D60075F0801205DC90070475F0801206301206BD9006F175F0801205DC9006F375F048
:2000F600801206653098031204F920052320062020A21D20A61A30A117E509450A600D151F
:200116000974FFB50902150AD2A7800CC2A78008D2A775092C750A019006ED75F080120556
:20013600DC9006F375F0801206303098031204F920A421C200C2059006F175F0801205DC70
:200156009007D075F0801206301206AA30983C1204F98037D2009006F175F0801205DC90A8
:2001760007AE75F0801206301206AA3098031204F930800C308109308206C205C202800BA7
:20019600D2051203AB3098031204F920A521C201C2069006F175F0801205DC9007E175F02B
:2001B600801206301206AA30983C1204F98037D2019006F175F0801205DC9007BF75F08068
:2001D6001206301206AA3098031204F930830C308409308506C206C203800BD20612045296
:2001F6003098031204F920A42620A523D296C297D294C2959006F175F0801205DC900715B4
:2002160075F0801206301206AA3098031204F920A0031205973098031204F920A66E9006EA
:20023600ED75F0801205DC90078C75F0801206309006F175F0801205DC90072675F0801280
:2002560006301206AA1206AAC296D297C294D2951206AAD296C297D294C2959006F175F024
:20027600801205DC90073775F0801206301206AAC296D297C294D2951206AAD296C297D265
:2002960094C29530A6FD3098031204F920A145D295C294C296C2979006ED75F0801205DCE1
:2002B60090079D75F0801206309006F175F0801205DC90077B75F08012063020A1082098A8
:2002D600051206AA80F53098031204F9C295D294D296C2971206BD20053220062F20A22C05
:2002F600D296C297D294C2959006ED75F0801205DC9006F375F0801206309006F175F080ED
:200316001205DC90071575F08012063030A245D297D296200409D29520A004D204C29590FE
:2003360006ED75F0801205DC9007F275F0801206309006F175F0801205DC90080375F08047
:200356001206301206AA1206AA2004030200FAC2950200FAC2040200FA7590007580FF7515
:20037600A0FF75B0FFD296C297D294C295D2A7C204C202C203C200C201C205C20675081EAF
:2003960075092C750A01750B00758920758DFD759850D28E222000129006ED75F0801205F0
:2003B600DC90072675F0801206302082259006F175F0801205DC90075975F080120630D24C
:2003D60097D296D294200205D29502044FC29502044F2080259006F175F0801205DC900758
:2003F6004875F080120630C296C297200206D295C2948045C295D294803F2081239006F150
:2004160075F0801205DC90076A75F080120630D297D296D294200204D295801DC29580196F
:20043600C205C20230A4129006F175F0801205DC9007D075F0801206300206AA20011290CD
:2004560006ED75F0801205DC90073775F0801206302085259006F175F0801205DC900759A7
:2004760075F080120630D297D296D294200305D2950204F6C2950204F62083259006F17560
:20049600F0801205DC90074875F080120630C296C297200306D295C2948045C295D294803E
:2004B6003F2084239006F175F0801205DC90076A75F080120630D297D296D294200304D263
:2004D60095801DC2958019C206C20330A5129006F175F0801205DC9007E175F0801206306C
:2004F6000206AAAF99C2988F9910990280FBBF00028032BF0102803CBF02028046BF030206
:200516008055BF40028046BFAA02800ABFBB02800BBFFF5C805085A08202058E74C045800E
:20053600F58202058EC007120597D0078F9910990280FB22C007120597D0078F99109902BE
:2005560080FB22C2A18F9910990280FB22D2018F9910990280FB22C007120597D0078F995E
:2005760010990280FB228F9910990280FB02036F8F9910990280FB2285829910990280FB25
:2005960022D202D203D204C295D29422AF82740F5FF50DEFC4540FF50C22AF82E59054F08D
:2005B6004FF590D2871206BDC2870206BDAF82E59054F04FF590D28700C2870000000000B5
:2005D600000000D28722AD82AE83AFF07C00EC2DF9E43EFA8F0389828A838BF01206C6FBE3
:2005F60060260CC2868B82C007C006C005C0041205A2850C821205B0850D821205B0D004A6
:20061600D005D006D00780C622D2861205A2850C821205C3850D820205C3AD82AE83AFF0FF
:200636007C00EC2DF9E43EFA8F0389828A838BF01206C6FB60180C8B82C007C006C005C059
:200656000412061FD004D005D006D00780D422AD82AE83AFF07C00EC2DF9E43EFA8F0389B9
:20067600828A838BF01206C6FB601B0C8B82C007C006C005C00412061F12069DD004D00542
:20069600D006D00780D1227F017EFF7DFFDDFEDEFADFF6227F087EFF7DFFDDFEDEFADFF6F9
:1006B6003098030204F9227F077E0FDEFEDFFA225E
:2006E60020280C0106800001068000C0002041474E492050524F54454354494F4E002057F5
:20070600454C434F4D4520544F202E2E2E2E004649524520414C41524D2050414E454C0040
:20072600205A4F4E45202D20303120202020202000205A4F4E45202D2030322020202020FE
:20074600200020464952452044455445435445442020002053484F52542044455445435402
:2007660045442000204F50454E20444554454354454420200020414C4C2054484520415229
:2007860045412020200050414E454C2054455354494E47204F4E0020504C454153452045C3
:2007A60056414355415445005A4F4E452D2030312049534F4C415445005A4F4E452D203056
:2007C600322049534F4C415445005A4F4E452D203031204845414C544859005A4F4E452D2E
:2007E600203032204845414C54485900202042415454455259204C4F5720202000204348CA
:0E08060045434B20414320535550504C590060
:06007B00E478FFF6D8FD59
:200059007900E94400601B7A00900814780175A000E493F2A308B8000205A0D9F4DAF27531
:02007900A0FFE6
:200081007800E84400600A790175A000E4F309D8FC7800E84400600C7900900001E4F0A37D
:0400A100D8FCD9FAB4
:0D004C007581201206E2E582600302004982
:1C06C60020F71430F6148883A88220F507E6A88375830022E280F7E49322E02243
:0406E20075820022FB
:00000001FF
