:0300000002004CAF
:200008000000E2FBEAF2802C0000E0FBEAF08024E6B50202EBF62200E2B50202EBF22200DE
:20002800E0B50202EBF02230F6E0A88220F5D3EAC6F582228B822230F6E6A88220F5D980EE
:01004800CFE8
:1100A500C200C201C202C203C204C205C2060200499C
:030049000200B6FC
:2000B6001203617F00BF0F0050139006E275F080C0071205D81206B9D0070F80E89006E953
:2000D60075F0801205D890070075F08012062C1206B99006ED75F0801205D89006EF75F064
:2000F600801206613098031204F59006E975F0801205D89006EF75F08012062C309803123D
:2001160004F520A41FD2009006ED75F0801205D89007AA75F08012062C1206A630980712BB
:2001360004F58002C20020A51FD2019006ED75F0801205D89007BB75F08012062C1206A625
:200156003098071204F58002C20130001E30011B9006ED75F0801205D890071175F08012DA
:20017600062C1206A63098031204F530A41DAF80530707BF0706C202C205802DD205D2A7CE
:2001960012038D3098231204F5801E20061B9006ED75F0801205D89007CC75F08012062CEF
:2001B6001206A63098031204F530A51DAF80530738BF3806C203C206802DD206D2A7120444
:2001D600413098231204F5801E20051B9006ED75F0801205D89007DD75F08012062C1206E8
:2001F600A63098031204F520A0031205933098031204F520A670D2A79006E975F080120500
:20021600D890078875F08012062C9006ED75F0801205D890072275F08012062C1206A6129F
:2002360006A6D296D297D294D2951206A6C296C297C294C2959006ED75F0801205D8900754
:200256003375F08012062C1206A6D296D297D294D2951206A6C296C297C294C29530A6FDE1
:200276003098031204F520A143D2A7D295D294D2969006E975F0801205D890079975F08078
:2002960012062C9006ED75F0801205D890077775F08012062C20A1082098051206A680F5BD
:2002B6003098031204F5C295C294C29620050B200608C296C297C294C2951206B920052774
:2002D6002006249006E975F0801205D89006EF75F08012062C9006ED75F0801205D89007CF
:2002F6001175F08012062CE5086005D50802C2A720A245D297200409D29520A004D204C2B4
:2003160095D2A79006E975F0801205D89007EE75F08012062C9006ED75F0801205D89007CA
:20033600FF75F08012062C1206A61206A62004030200FAC2950200FAC2043005030200FA93
:200356003006030200FAC2970200FA7590007580FF75A0FF75B0FFC204C202C203C200C2F9
:2003760001C205C20675081E750900758920758DFD759850D28E222000129006E975F0802C
:200396001205D890072275F08012062C2082239006ED75F0801205D890075575F080120671
:2003B6002CD297C296C29430020302043ED29502043E2080259006ED75F0801205D890070D
:2003D6004475F08012062CD296308405308502C297200254D295D294804E20811F9006ED15
:2003F60075F0801205D890076675F08012062CD297C296C294200230D295802CC205C202E6
:20041600200610AF80530738BF3808C297C296C294C29530A4129006ED75F0801205D890A5
:2004360007CC75F08012062C0206A62001129006E975F0801205D890073375F08012062C83
:200456002085239006ED75F0801205D890075575F08012062CD297C296C2943003030204FF
:20047600F2D2950204F22083259006ED75F0801205D890074475F08012062CD296308105D4
:20049600308202C297200354D295D294804E20841F9006ED75F0801205D890076675F0802B
:2004B60012062CD297C296C294200330D295802CC206C203200510AF80530707BF0708C283
:2004D60097C296C294C29530A5129006ED75F0801205D89007DD75F08012062C0206A6AF32
:2004F60099C2988F9910990280FBBF00028032BF0102803CBF02028046BF03028055BF4093
:20051600028046BFAA02800ABFBB02800BBFFF5C805085A08202058A74C04580F582020568
:200536008AC007120593D0078F9910990280FB22C007120593D0078F9910990280FB22C2E9
:20055600A18F9910990280FB22D2018F9910990280FB22C007120593D0078F991099028096
:20057600FB228F9910990280FB0203618F9910990280FB2285829910990280FB22D202D296
:2005960003D204C295C29422AF82740F5FF50BEFC4540FF50A22AF82E59054F04FF590D2C3
:2005B600871206B9C2870206B9AF82E59054F04FF590D28700C2870000000000000000D291
:2005D6008722AD82AE83AFF07C00EC2DF9E43EFA8F0389828A838BF01206C2FB60260CC265
:2005F600868B82C007C006C005C00412059E850A821205AC850B821205ACD004D005D0065F
:20061600D00780C622D28612059E850A821205BF850B820205BFAD82AE83AFF07C00EC2D25
:20063600F9E43EFA8F0389828A838BF01206C2FB60180C8B82C007C006C005C00412061BBB
:20065600D004D005D006D00780D422AD82AE83AFF07C00EC2DF9E43EFA8F0389828A838BDA
:20067600F01206C2FB601B0C8B82C007C006C005C00412061B120699D004D005D006D007BB
:2006960080D1227F017EFF7DFFDDFEDEFADFF6227F087EFF7DFFDDFEDEFADFF630980302D9
:0C06B60004F5227F077E0FDEFEDFFA2233
:2006E20020280C0106800001068000C0002041474E492050524F54454354494F4E002057F9
:20070200454C434F4D4520544F202E2E2E2E004649524520414C41524D2050414E454C0044
:20072200205A4F4E45202D20303120202020202000205A4F4E45202D203032202020202002
:20074200200020464952452044455445435445442020002053484F52542044455445435406
:2007620045442000204F50454E20444554454354454420200020414C4C205448452041522D
:2007820045412020200050414E454C2054455354494E47204F4E0020504C454153452045C7
:2007A20056414355415445005A4F4E452D2030312049534F4C415445005A4F4E452D20305A
:2007C200322049534F4C415445005A4F4E452D203031204845414C544859005A4F4E452D32
:2007E200203032204845414C54485900202042415454455259204C4F5720202000204348CE
:0E08020045434B20414320535550504C590064
:06007B00E478FFF6D8FD59
:200059007900E94400601B7A00900810780175A000E493F2A308B8000205A0D9F4DAF27535
:02007900A0FFE6
:200081007800E84400600A790175A000E4F309D8FC7800E84400600C7900900001E4F0A37D
:0400A100D8FCD9FAB4
:0D004C007581201206DEE582600302004986
:1C06C20020F71430F6148883A88220F507E6A88375830022E280F7E49322E02247
:0406DE0075820022FF
:00000001FF
