:0300000002004CAF
:200008000000E2FBEAF2802C0000E0FBEAF08024E6B50202EBF62200E2B50202EBF22200DE
:20002800E0B50202EBF02230F6E0A88220F5D3EAC6F582228B822230F6E6A88220F5D980EE
:01004800CFE8
:1100A500C200C201C202C203C204C205C2060200499C
:030049000200B6FC
:2000B60012035D7F00BF0F00501390070275F080C0071205F81206D9D0070F80E8900709D5
:2000D60075F0801205F890072075F08012064C1206D990070D75F0801205F890070F75F082
:2000F6008012068130980312051520050E20060B20A208C296C297C294C29590070975F049
:20011600801205F890070F75F08012064C30980312051520A421C200C20590070D75F0805D
:200136001205F89007EC75F08012064C1206C630983E1205158039D20090070D75F0801298
:2001560005F89007CA75F08012064C1206C630980312051530800C308109308206C205C256
:2001760002800DD205D2A712039330980312051520A521C201C20690070D75F0801205F8E2
:200196009007FD75F08012064C1206C630983E1205158039D20190070D75F0801205F890A8
:2001B60007DB75F08012064C1206C630980312051530830C308409308506C206C203800DD8
:2001D600D206D2A712045430980312051520A41E20A51B90070D75F0801205F890073175C0
:2001F600F08012064C1206C630980312051520050E20060B20A208C296C297C294C2952094
:20021600A0031205B330980312051520A670D2A790070975F0801205F89007A875F08012EB
:20023600064C90070D75F0801205F890074275F08012064C1206C61206C6D296D297D294A9
:20025600D2951206C6C296C297C294C29590070D75F0801205F890075375F08012064C1208
:2002760006C6D296D297D294D2951206C6C296C297C294C29530A6FD30980312051520A137
:2002960043D2A7D295D294D29690070975F0801205F89007B975F08012064C90070D75F021
:2002B600801205F890079775F08012064C20A1082098051206C680F5309803120515C295FB
:2002D600C294C2961206D920052720062490070975F0801205F890070F75F08012064C90C0
:2002F600070D75F0801205F890073175F08012064CE5086005D50802C2A730A245D2972095
:200316000409D29520A004D204C295D2A790070975F0801205F890080E75F08012064C90D6
:20033600070D75F0801205F890081F75F08012064C1206C61206C62004030200FAC2950267
:2003560000FAC2040200FA7590007580FF75A0FF75B0FFC296C297C294C295C2A7C204C24B
:2003760002C203C200C201C205C20675081E750900758920758DFD759850D28E2220001245
:2003960090070975F0801205F890074275F08012064C20822590070D75F0801205F890079B
:2003B6007575F08012064CD297C296C294200205D295020451C29502045120802E90070D4D
:2003D60075F0801205F890076475F08012064CD296308308308405308502C297200206D2E9
:2003F60095D2948056C295C294805020812390070D75F0801205F890078675F08012064CD7
:20041600D297C296C294200204D295802EC295802AC205C20230830E30840B308508C29752
:20043600C296C294C29530A41290070D75F0801205F89007EC75F08012064C0206C6200168
:200456001290070975F0801205F890075375F08012064C20852590070D75F0801205F890BB
:20047600077575F08012064CD297C296C294200305D295020512C29502051220832E90070A
:200496000D75F0801205F890076475F08012064CD296308008308105308202C297200306F5
:2004B600D295D2948056C295C294805020842390070D75F0801205F890078675F08012068D
:2004D6004CD297C296C294200304D295802EC295802AC206C20330800E30810B308208C2E3
:2004F60097C296C294C29530A51290070D75F0801205F89007FD75F08012064C0206C6AF71
:2005160099C2988F9910990280FBBF00028032BF0102803CBF02028046BF03028055BF4072
:20053600028046BFAA02800ABFBB02800BBFFF5C805085A0820205AA74C04580F582020528
:20055600AAC0071205B3D0078F9910990280FB22C0071205B3D0078F9910990280FB22C269
:20057600A18F9910990280FB22D2018F9910990280FB22C0071205B3D0078F991099028056
:20059600FB228F9910990280FB02035D8F9910990280FB2285829910990280FB22D202D27A
:2005B60003D204C295C29422AF82740F5FF50BEFC4540FF50A22AF82E59054F04FF590D2A3
:2005D600871206D9C2870206D9AF82E59054F04FF590D28700C2870000000000000000D231
:2005F6008722AD82AE83AFF07C00EC2DF9E43EFA8F0389828A838BF01206E2FB60260CC225
:20061600868B82C007C006C005C0041205BE850A821205CC850B821205CCD004D005D006DE
:20063600D00780C622D2861205BE850A821205DF850B820205DFAD82AE83AFF07C00EC2DA5
:20065600F9E43EFA8F0389828A838BF01206E2FB60180C8B82C007C006C005C00412063B5B
:20067600D004D005D006D00780D422AD82AE83AFF07C00EC2DF9E43EFA8F0389828A838BBA
:20069600F01206E2FB601B0C8B82C007C006C005C00412063B1206B9D004D005D006D0073B
:2006B60080D1227F017EFF7DFFDDFEDEFADFF6227F087EFF7DFFDDFEDEFADFF630980302B9
:0C06D6000515227F077E0FDEFEDFFA22F2
:2007020020280C0106800001068000C0002041474E492050524F54454354494F4E002057D8
:20072200454C434F4D4520544F202E2E2E2E004649524520414C41524D2050414E454C0024
:20074200205A4F4E45202D20303120202020202000205A4F4E45202D2030322020202020E2
:20076200200020464952452044455445435445442020002053484F525420444554454354E6
:2007820045442000204F50454E20444554454354454420200020414C4C205448452041520D
:2007A20045412020200050414E454C2054455354494E47204F4E0020504C454153452045A7
:2007C20056414355415445005A4F4E452D2030312049534F4C415445005A4F4E452D20303A
:2007E200322049534F4C415445005A4F4E452D203031204845414C544859005A4F4E452D12
:20080200203032204845414C54485900202042415454455259204C4F5720202000204348AD
:0E08220045434B20414320535550504C590044
:06007B00E478FFF6D8FD59
:200059007900E94400601B7A00900830780175A000E493F2A308B8000205A0D9F4DAF27515
:02007900A0FFE6
:200081007800E84400600A790175A000E4F309D8FC7800E84400600C7900900001E4F0A37D
:0400A100D8FCD9FAB4
:0D004C007581201206FEE582600302004966
:1C06E20020F71430F6148883A88220F507E6A88375830022E280F7E49322E02227
:0406FE0075820022DF
:00000001FF
