:0300000002004CAF
:200008000000E2FBEAF2802C0000E0FBEAF08024E6B50202EBF62200E2B50202EBF22200DE
:20002800E0B50202EBF02230F6E0A88220F5D3EAC6F582228B822230F6E6A88220F5D980EE
:01004800CFE8
:1100A500C200C201C202C203C204C205C2060200499C
:030049000200B6FC
:2000B6001203A57F00BF0F0050139006F075F080C0071205E61206C7D0070F80E89006F7D7
:2000D60075F0801205E690070E75F08012063A1206C79006FB75F0801205E69006FD75F002
:2000F6008012066F30980312050320052320062020A21D20A61A30A117E509450A600D150A
:200116000974FFB50902150AD2A7800CC2A78008D2A775092C750A019006F775F08012054C
:20013600E69006FD75F08012063A30980312050320A421C200C2059006FB75F0801205E633
:200156009007DA75F08012063A1206B430983C1205038037D2009006FB75F0801205E6906B
:2001760007B875F08012063A1206B430980312050330800C308109308206C205C202800B7E
:20019600D2051203E130980312050320A521C201C2069006FB75F0801205E69007EB75F0CC
:2001B6008012063A1206B430983C1205038037D2019006FB75F0801205E69007C975F0802B
:2001D60012063A1206B430980312050330830C308409308506C206C203800BD20612047257
:2001F60030980312050320A41E20A51B9006FB75F0801205E690071F75F08012063A1206CA
:20021600B430980312050320A0031205A130980312050320A66E9006F775F0801205E6909C
:20023600079675F08012063A9006FB75F0801205E690073075F08012063A1206B41206B4CB
:20025600C296D297C294D2951206B4D296C297D294C2959006FB75F0801205E69007417500
:20027600F08012063A1206B4C296D297C294D2951206B4D296C297D294C29530A6FD309877
:200296000312050320A145D295C294C296C2979006F775F0801205E69007A775F08012060D
:2002B6003A9006FB75F0801205E690078575F08012063A20A1082098051206B480F5309899
:2002D60003120503C295D294D296C2971206C720052A20062720A2249006F775F080120583
:2002F600E69006FD75F08012063A9006FB75F0801205E690071F75F08012063A2005102083
:20031600060D20A20AD296C297D294C2958033200503300624208003200506208315300679
:2003360012C296C297200207200304C294800AD2948006D296D297D29430A206D297D296E8
:20035600D29430A245D297D296200409D29520A004D204C2959006F775F0801205E69007AE
:20037600FC75F08012063A9006FB75F0801205E690080D75F08012063A1206B41206B4202D
:2003960004030200FAC2950200FAC2040200FA7590007580FF75A0FF75B0FFD296C297D26B
:2003B60094C295D2A7C204C202C203C200C201C205C20675081E75092C750A01750B0075A6
:2003D6008920758DFD759850D28E222000129006F775F0801205E690073075F08012063AE1
:2003F60020821D9006FB75F0801205E690076375F08012063A200204D295805DC2958059EA
:2004160020801D9006FB75F0801205E690075275F08012063A200204D295803DC29580391C
:2004360020811D9006FB75F0801205E690077475F08012063A200204D295801DC295801919
:20045600C205C20230A4129006FB75F0801205E69007DA75F08012063A0206B4200112907B
:2004760006F775F0801205E690074175F08012063A20851D9006FB75F0801205E690076349
:2004960075F08012063A200304D295805DC295805920831D9006FB75F0801205E690075258
:2004B60075F08012063A200304D295803DC295803920841D9006FB75F0801205E690077455
:2004D60075F08012063A200304D295801DC2958019C206C20330A5129006FB75F0801205B3
:2004F600E69007EB75F08012063A0206B4AF99C2988F9910990280FBBF00028032BF010266
:20051600803CBF02028046BF03028055BF40028046BFAA02800ABFBB02800BBFFF5C80503A
:2005360085A08202059874C04580F582020598C0071205A1D0078F9910990280FB22C007C3
:200556001205A1D0078F9910990280FB22C2A18F9910990280FB22D2018F9910990280FB92
:2005760022C0071205A1D0078F9910990280FB228F9910990280FB0203A58F991099028032
:20059600FB2285829910990280FB22D202D203D204C295D29422AF82740F5FF50DEFC454C6
:2005B6000FF50C22AF82E59054F04FF590D2871206C7C2870206C7AF82E59054F04FF59027
:2005D600D28700C2870000000000000000D28722AD82AE83AFF07C00EC2DF9E43EFA8F03AD
:2005F60089828A838BF01206D0FB60260CC2868B82C007C006C005C0041205AC850C82128A
:2006160005BA850D821205BAD004D005D006D00780C622D2861205AC850C821205CD850DBE
:20063600820205CDAD82AE83AFF07C00EC2DF9E43EFA8F0389828A838BF01206D0FB601825
:200656000C8B82C007C006C005C004120629D004D005D006D00780D422AD82AE83AFF07CCD
:2006760000EC2DF9E43EFA8F0389828A838BF01206D0FB601B0C8B82C007C006C005C00484
:200696001206291206A7D004D005D006D00780D1227F017EFF7DFFDDFEDEFADFF6227F08D1
:1A06B6007EFF7DFFDDFEDEFADFF6309803020503227F077E0FDEFEDFFA22C8
:2006F00020280C0106800001068000C0002041474E492050524F54454354494F4E002057EB
:20071000454C434F4D4520544F202E2E2E2E004649524520414C41524D2050414E454C0036
:20073000205A4F4E45202D20303120202020202000205A4F4E45202D2030322020202020F4
:20075000200020464952452044455445435445442020002053484F525420444554454354F8
:2007700045442000204F50454E20444554454354454420200020414C4C205448452041521F
:2007900045412020200050414E454C2054455354494E47204F4E0020504C454153452045B9
:2007B00056414355415445005A4F4E452D2030312049534F4C415445005A4F4E452D20304C
:2007D000322049534F4C415445005A4F4E452D203031204845414C544859005A4F4E452D24
:2007F000203032204845414C54485900202042415454455259204C4F5720202000204348C0
:0E08100045434B20414320535550504C590056
:06007B00E478FFF6D8FD59
:200059007900E94400601B7A0090081E780175A000E493F2A308B8000205A0D9F4DAF27527
:02007900A0FFE6
:200081007800E84400600A790175A000E4F309D8FC7800E84400600C7900900001E4F0A37D
:0400A100D8FCD9FAB4
:0D004C007581201206ECE582600302004978
:1C06D00020F71430F6148883A88220F507E6A88375830022E280F7E49322E02239
:0406EC0075820022F1
:00000001FF
