:0300000002004CAF
:200008000000E2FBEAF2802C0000E0FBEAF08024E6B50202EBF62200E2B50202EBF22200DE
:20002800E0B50202EBF02230F6E0A88220F5D3EAC6F582228B822230F6E6A88220F5D980EE
:01004800CFE8
:1100A500C200C201C202C203C204C205C2060200499C
:030049000200B6FC
:2000B60012037F7F00BF0F0050139006F675F080C0071205EC1206CDD0070F80E89006FDE5
:2000D60075F0801205EC90071475F0801206401206CD90070175F0801205EC90070375F0D6
:2000F6008012067530980312050920052320062020A21D20A61A30A117E509450A600D15FE
:200116000974FFB50902150AD2A7800CC2A78008D2A775092C750A019006FD75F080120546
:20013600EC90070375F08012064030980312050920A421C200C20590070175F0801205EC0D
:200156009007E075F0801206401206BA309844120509803FD20090070175F0801205EC9036
:2001760007BE75F0801206401206BA30980312050930801430811130820EC205C202D29671
:20019600C297D294C295800BD2051203BB30980312050920A521C201C20690070175F08028
:2001B6001205EC9007F175F0801206401206BA309844120509803FD20190070175F0801242
:2001D60005EC9007CF75F0801206401206BA30980312050930831430841130850EC206C2DF
:2001F60003D296C297D294C295800BD20612046230980312050920A42620A523D296C2970F
:20021600D294C29590070175F0801205EC90072575F0801206401206BA30980312050920B5
:20023600A0031205A730980312050920A66E9006FD75F0801205EC90079C75F0801206403D
:2002560090070175F0801205EC90073675F0801206401206BA1206BAC296D297C294D295DC
:200276001206BAD296C297D294C29590070175F0801205EC90074775F0801206401206BAAB
:20029600C296D297C294D2951206BAD296C297D294C29530A6FD30980312050920A145D2E4
:2002B60095C294C296C2979006FD75F0801205EC9007AD75F08012064090070175F0801201
:2002D60005EC90078B75F08012064020A1082098051206BA80F5309803120509C295D29443
:2002F600D296C2971206CD20053220062F20A22CD296C297D294C2959006FD75F08012059B
:20031600EC90070375F08012064090070175F0801205EC90072575F08012064030A245D2A2
:2003360097D296200409D29520A004D204C2959006FD75F0801205EC90080275F080120611
:200356004090070175F0801205EC90081375F0801206401206BA1206BA2004030200FAC256
:20037600950200FAC2040200FA7590007580FF75A0FF75B0FFD296C297D294C295D2A7C22A
:2003960004C202C203C200C201C205C20675081E75092C750A01750B00758920758DFD75CF
:2003B6009850D28E222000129006FD75F0801205EC90073675F080120640208225900701A7
:2003D60075F0801205EC90076975F080120640D297D296D294200205D29502045FC295025F
:2003F600045F20802590070175F0801205EC90075875F080120640C296C297200206D295D3
:20041600C2948045C295D294803F20812390070175F0801205EC90077A75F080120640D2CB
:2004360097D296D294200204D295801DC2958019C205C20230A41290070175F0801205EC36
:200456009007E075F0801206400206BA2001129006FD75F0801205EC90074775F080120687
:200476004020852590070175F0801205EC90076975F080120640D297D296D294200305D26E
:2004960095020506C29502050620832590070175F0801205EC90075875F080120640C29674
:2004B600C297200306D295C2948045C295D294803F20842390070175F0801205EC90077A4E
:2004D60075F080120640D297D296D294200304D295801DC2958019C206C20330A51290076C
:2004F6000175F0801205EC9007F175F0801206400206BAAF99C2988F9910990280FBBF00C7
:20051600028032BF0102803CBF02028046BF03028055BF40028046BFAA02800ABFBB0280B9
:200536000BBFFF5C805085A08202059E74C04580F58202059EC0071205A7D0078F99109922
:200556000280FB22C0071205A7D0078F9910990280FB22C2A18F9910990280FB22D2018FE5
:200576009910990280FB22C0071205A7D0078F9910990280FB228F9910990280FB02037FE6
:200596008F9910990280FB2285829910990280FB22D202D203D204C295D29422AF82740FDB
:2005B6005FF50DEFC4540FF50C22AF82E59054F04FF590D2871206CDC2870206CDAF82E55B
:2005D6009054F04FF590D28700C2870000000000000000D28722AD82AE83AFF07C00EC2DAC
:2005F600F9E43EFA8F0389828A838BF01206D6FB60260CC2868B82C007C006C005C00412B3
:2006160005B2850C821205C0850D821205C0D004D005D006D00780C622D2861205B2850CC8
:20063600821205D3850D820205D3AD82AE83AFF07C00EC2DF9E43EFA8F0389828A838BF07C
:200656001206D6FB60180C8B82C007C006C005C00412062FD004D005D006D00780D422AD34
:2006760082AE83AFF07C00EC2DF9E43EFA8F0389828A838BF01206D6FB601B0C8B82C007FF
:20069600C006C005C00412062F1206ADD004D005D006D00780D1227F017EFF7DFFDDFEDEEE
:2006B600FADFF6227F087EFF7DFFDDFEDEFADFF6309803020509227F077E0FDEFEDFFA2244
:2006F60020280C0106800001068000C0002041474E492050524F54454354494F4E002057E5
:20071600454C434F4D4520544F202E2E2E2E004649524520414C41524D2050414E454C0030
:20073600205A4F4E45202D20303120202020202000205A4F4E45202D2030322020202020EE
:20075600200020464952452044455445435445442020002053484F525420444554454354F2
:2007760045442000204F50454E20444554454354454420200020414C4C2054484520415219
:2007960045412020200050414E454C2054455354494E47204F4E0020504C454153452045B3
:2007B60056414355415445005A4F4E452D2030312049534F4C415445005A4F4E452D203046
:2007D600322049534F4C415445005A4F4E452D203031204845414C544859005A4F4E452D1E
:2007F600203032204845414C54485900202042415454455259204C4F5720202000204348BA
:0E08160045434B20414320535550504C590050
:06007B00E478FFF6D8FD59
:200059007900E94400601B7A00900824780175A000E493F2A308B8000205A0D9F4DAF27521
:02007900A0FFE6
:200081007800E84400600A790175A000E4F309D8FC7800E84400600C7900900001E4F0A37D
:0400A100D8FCD9FAB4
:0D004C007581201206F2E582600302004972
:1C06D60020F71430F6148883A88220F507E6A88375830022E280F7E49322E02233
:0406F20075820022EB
:00000001FF
