:0300000002004CAF
:200008000000E2FBEAF2802C0000E0FBEAF08024E6B50202EBF62200E2B50202EBF22200DE
:20002800E0B50202EBF02230F6E0A88220F5D3EAC6F582228B822230F6E6A88220F5D980EE
:01004800CFE8
:1100A500C200C201C202C203C204C205C2060200499C
:030049000200B6FC
:2000B6001204D07F00BF0F00501390082375F080C0071206E71207C8D0070F80E890082A3D
:2000D60075F0801206E790084175F08012073B1207C890082E75F0801206E790083075F05C
:2000F6008012077030980312060220052320062020A21D20A61A30A117E509450A600D1508
:200116000974FFB50902150AD2A7800CC2A78008D2A775092C750A0120051820061520A29B
:200136001290082A75F0801206E790083075F08012073B30980312060220A430C200C2058E
:2001560090082E75F0801206E790090D75F08012073B75100075110175120075820112075C
:20017600D11207B53098361206028031D20030802130811E30821BC205C20290082E75F00C
:20019600801206E79008EB75F08012073B1207B58005D20512051630980312060220A530DD
:2001B600C201C20690082E75F0801206E790091E75F08012073B75100075110175120075FC
:2001D60082011207D11207B53098361206028031D20130832130841E30851BC206C203909F
:2001F600082E75F0801206E79008FC75F08012073B1207B58005D20612058C309803120651
:200216000220A42D20A52A90082E75F0801206E790085275F08012073B7510007511017598
:2002360012007582011207D11207B530980312060220A0031206A030980312060230A603C8
:200256000202E390082A75F0801206E79008C975F08012073B90082E75F0801206E790081F
:200276006375F08012073B1207B51207B57510017511007512017582001207D11207B57578
:2002960010007511017512007582011207D190082E75F0801206E790087475F08012073B59
:2002B6001207B57510017511007512017582001207D11207B575100075110175120075828D
:2002D600011207D130A6FD30980312060220A1537510017511007512007582001207D1904D
:2002F600082A75F0801206E79008DA75F08012073B90082E75F0801206E79008B875F08048
:2003160012073B20A1082098051207B580F53098031206027510007511017512007582013A
:200336001207D11207C820053F20063C20A23920A43620A53390082A75F0801206E79008EB
:200356003075F08012073B90082E75F0801206E790085275F08012073B75100075110175D0
:2003760012007582011207D120051B20061820A2157510007511017512007582011207D1A9
:20039600750D00020464050DE50D24AF5003750D0074CE250D40047F0180027F003005033E
:2003B60030800630063E20833B20020630050330800920031A3006172083148F10751100A0
:2003D600751200758200C0071207D1D007805A751000751100751200758201C0071207D1EC
:2003F600D007804530050630820C30810930063930850320843320020320050620031730E0
:2004160006148F10751101751201758201C0071207D1D007801375100075110175120175E2
:200436008201C0071207D1D00730A2222004108F107511017512017582011207D1800F75DF
:2004560010007511017512017582011207D130A26420042575100175110175120175820179
:200476001207D120A022D2047510007511017512017582011207D1800F751000751101753E
:2004960012017582011207D190082A75F0801206E790092F75F08012073B90082E75F080FF
:2004B6001206E790094075F08012073B1207B51207B50200FAC2040200FA758920758DFD9E
:2004D600759850D28E7580FF75A0FF75B0FF7590007510007511017512007582011207D1A3
:2004F600D2A7C204C202C203C200C201C205C20675081E75092C750A01750B00750D002221
:2005160020001290082A75F0801206E790086375F08012073B20821490082E75F080120640
:20053600E790089675F08012073B804720801490082E75F0801206E790088575F080120717
:200556003B803020811490082E75F0801206E79008A775F08012073B8019C205C20230A4CB
:200576001290082E75F0801206E790090D75F08012073B0207B520011290082A75F0801220
:2005960006E790087475F08012073B20851490082E75F0801206E790089675F08012073B49
:2005B600804720831490082E75F0801206E790088575F08012073B803020841490082E7504
:2005D600F0801206E79008A775F08012073B8019C206C20330A51290082E75F0801206E767
:2005F60090091E75F08012073B0207B5AF99C2988F9910990280FBBF00028032BF01028092
:200616003CBF02028046BF03028055BF40028046BFAA02800ABFBB02800BBFFF5C80508534
:20063600A08202069774C04580F582020697C0071206A0D0078F9910990280FB22C0071235
:2006560006A0D0078F9910990280FB22C2A18F9910990280FB22D2018F9910990280FB2281
:20067600C0071206A0D0078F9910990280FB228F9910990280FB0204D08F9910990280FB2C
:200696002285829910990280FB22D202D203D20422AF82740F5FF50FEFC4540FF50E22AF98
:2006B60082E50C54F0FE740F5F4EF590D2871207C8C2870207C8AF82E50C54F0FE740F5F20
:2006D6004EF590D28700C287000000000000000022AD82AE83AFF07C00EC2DF9E43EFA8F35
:2006F6000389828A838BF0120803FB60260CC2868B82C007C006C005C0041206A7850E8265
:200716001206B5850F821206B5D004D005D006D00780C622D2861206A7850E821206CC85C0
:200736000F820206CCAD82AE83AFF07C00EC2DF9E43EFA8F0389828A838BF0120803FB60F8
:20075600180C8B82C007C006C005C00412072AD004D005D006D00780D422AD82AE83AFF02E
:200776007C00EC2DF9E43EFA8F0389828A838BF0120803FB601B0C8B82C007C006C005C0D6
:200796000412072A1207A8D004D005D006D00780D1227F017EFF7DFFDDFEDEFADFF6227FD0
:2007B600087EFF7DFFDDFEDEFADFF6309803020602227F077E0FDEFEDFFA22AF82AE10AD1D
:2007D60011AC12EFC454F0FFEEC42354E04207ED030354C04207EC0354804FF50C0207F68A
:0D07F600E590540FFFE50C54F04FF59022F4
:2008230020280C0106800001068000C0002041474E492050524F54454354494F4E002057B6
:20084300454C434F4D4520544F202E2E2E2E004649524520414C41524D2050414E454C0002
:20086300205A4F4E45202D20303120202020202000205A4F4E45202D2030322020202020C0
:20088300200020464952452044455445435445442020002053484F525420444554454354C4
:2008A30045442000204F50454E20444554454354454420200020414C4C20544845204152EB
:2008C30045412020200050414E454C2054455354494E47204F4E0020504C45415345204585
:2008E30056414355415445005A4F4E452D2030312049534F4C415445005A4F4E452D203018
:20090300322049534F4C415445005A4F4E452D203031204845414C544859005A4F4E452DEF
:20092300203032204845414C54485900202042415454455259204C4F57202020002043488B
:0E09430045434B20414320535550504C590022
:06007B00E478FFF6D8FD59
:200059007900E94400601B7A00900951780175A000E493F2A308B8000205A0D9F4DAF275F3
:02007900A0FFE6
:200081007800E84400600A790175A000E4F309D8FC7800E84400600C7900900001E4F0A37D
:0400A100D8FCD9FAB4
:0D004C0075812012081FE582600302004943
:1C08030020F71430F6148883A88220F507E6A88375830022E280F7E49322E02204
:04081F0075820022BC
:00000001FF
