:0300000002004CAF
:100008000000E2FBEAF2802C0000E0FBEAF080242A
:10001800E6B50202EBF62200E2B50202EBF222009C
:10002800E0B50202EBF02230F6E0A88220F5D3EA30
:10003800C6F582228B822230F6E6A88220F5D98086
:01004800CFE8
:1000A500C200C201C202C203C204C205C2060200E6
:0100B5004901
:030049000200B6FC
:1000B6001204DA7F00BF0F00501390082E75F080EF
:1000C600C0071206F21207D3D0070F80E890083552
:1000D60075F0801206F290084C75F08012074612F1
:1000E60007D390083975F0801206F290083B75F038
:1000F6008012077B30980312060D20052320062068
:1001060020A21D20A61A30A117E509450A600D1583
:100116000974FFB50902150AD2A7800CC2A7800888
:10012600D2A775092C750A0120051820061520A2EC
:100136001290083575F0801206F290083B75F08033
:1001460012074630980312060D20A442C2003080E2
:100156003030812D30822AC205C20290083975F0EE
:10016600801206F290091875F08012074675110084
:100176007512017513007582011207DC1207C08023
:1001860005D20512052130983612060D8031D200AF
:1001960030802130811E30821BC205C20290083990
:1001A60075F0801206F29008F675F0801207461276
:1001B60007C08005D20512052130980312060D20CE
:1001C600A542C20130833030842D30852AC206C252
:1001D6000390083975F0801206F290092975F080AF
:1001E600120746751100751201751300758201120A
:1001F60007DC1207C08005D2061205973098361222
:10020600060D8031D20130832130841E30851BC219
:1002160006C20390083975F0801206F29009077538
:10022600F0801207461207C08005D20612059730E5
:10023600980312060D20A42D20A52A90083975F0E2
:10024600801206F290085D75F0801207467511005F
:100256007512017513007582011207DC1207C03092
:10026600980312060D20A0031206AB30980312065F
:100276000D30A60302030790083575F0801206F2CA
:100286009008D475F08012074690083975F08012F0
:1002960006F290086E75F0801207461207C0120724
:1002A600C07511017512007513017582001207DC05
:1002B6001207C075110075120175130075820112BF
:1002C60007DC90083975F0801206F290087F75F009
:1002D600801207461207C0751101751200751301C9
:1002E6007582001207DC1207C075110075120175C0
:1002F60013007582011207DC30A6FD309803120642
:100306000D20A15375110175120075130075820039
:100316001207DC90083575F0801206F29008E57534
:10032600F08012074690083975F0801206F29008A0
:10033600C375F08012074620A1082098051207C051
:1003460080F530980312060D7511007512017513AC
:10035600007582011207DC1207D320053F20063CF8
:1003660020A23920A43620A53390083575F08012D6
:1003760006F290083B75F08012074690083975F032
:10038600801206F290085D75F0801207467511001E
:100396007512017513007582011207DC20051D20F8
:1003A600061A20A2177511007512017513007582C1
:1003B600011207DCE4F50DF50E02046E050DE4B539
:1003C6000D02050EC374E8950D7403950E5005E4F1
:1003D600F50DF50EC3E50D94F4E50E940150047F7A
:1003E6000180027F0030050330800630062C208312
:1003F6002920020630050330800920031330061039
:1004060020830DC294EF24FF9295C296C297803D39
:10041600D294C295C296C297803330050630820CBC
:1004260030810930062730850320842120020320ED
:10043600050620031030060DD294EF24FF9295D2C4
:1004460096D2978008D294C295D296D29730A218A7
:1004560020040DD294EF24FF9295D296D29780086D
:10046600D294C295D296D29730A2642004257511F3
:10047600017512017513017582011207DC20A02295
:10048600D2047511007512017513017582011207E8
:10049600DC800F751100751201751301758201124A
:1004A60007DC90083575F0801206F290093A75F06F
:1004B6008012074690083975F0801206F290094BB3
:1004C60075F0801207461207C01207C00200FAC272
:1004D600040200FA758920758DFD759850D28E75C7
:1004E60080FF75A0FF75B0FF75900075110075123D
:1004F600017513007582011207DCD2A7C204C2027D
:10050600C203C200C201C205C20675081E75092CC7
:10051600750A01E4F50BF50DF50E22200012900880
:100526003575F0801206F290086E75F08012074657
:1005360020821490083975F0801206F29008A17591
:10054600F080120746804720801490083975F080A5
:100556001206F290089075F08012074680302081CE
:100566001490083975F0801206F29008B275F08082
:100576001207468019C205C20230A41290083975C6
:10058600F0801206F290091875F0801207460207ED
:10059600C020011290083575F0801206F290087F8F
:1005A60075F08012074620851490083975F0801280
:1005B60006F29008A175F080120746804720831442
:1005C60090083975F0801206F290089075F0801246
:1005D6000746803020841490083975F0801206F2A0
:1005E6009008B275F0801207468019C206C2033021
:1005F600A51290083975F0801206F290092975F057
:10060600801207460207C0AF99C2988F99109902C7
:1006160080FBBF00028032BF0102803CBF02028025
:1006260046BF03028055BF40028046BFAA02800A29
:10063600BFBB02800BBFFF5C805085A0820206A272
:1006460074C04580F5820206A2C0071206ABD00729
:100656008F9910990280FB22C0071206ABD0078F34
:100666009910990280FB22C2A18F9910990280FBF2
:1006760022D2018F9910990280FB22C0071206AB85
:10068600D0078F9910990280FB228F9910990280CA
:10069600FB0204DA8F9910990280FB228582991059
:1006A600990280FB22D202D203D20422AF82740FB7
:1006B6005FF510EFC4540FF50F22AF82E50C54F02E
:1006C600FE740F5F4EF590D2871207D3C2870207DA
:1006D600D3AF82E50C54F0FE740F5F4EF590D287CF
:1006E60000C287000000000000000022AD82AE8339
:1006F600AFF07C00EC2DF9E43EFA8F0389828A8301
:100706008BF012080EFB60260CC2868B82C007C0D7
:1007160006C005C0041206B2850F821206C08510F7
:10072600821206C0D004D005D006D00780C622D2D9
:10073600861206B2850F821206D78510820206D768
:10074600AD82AE83AFF07C00EC2DF9E43EFA8F0368
:1007560089828A838BF012080EFB60180C8B82C08C
:1007660007C006C005C004120735D004D005D00660
:10077600D00780D422AD82AE83AFF07C00EC2DF999
:10078600E43EFA8F0389828A838BF012080EFB609F
:100796001B0C8B82C007C006C005C00412073512A9
:1007A60007B3D004D005D006D00780D1227F017EC2
:1007B600FF7DFFDDFEDEFADFF6227F087EFF7DFF8E
:1007C600DDFEDEFADFF630980302060D227F077E95
:1007D6000FDEFEDFFA22AF82AE11AD12AC13EFC40C
:1007E60054F0FFEEC42354E04207ED030354C04225
:1007F60007EC0354804FF50C020801E590540FFFF7
:08080600E50C54F04FF59022BF
:10082E0020280C0106800001068000C000204147F0
:10083E004E492050524F54454354494F4E00205775
:10084E00454C434F4D4520544F202E2E2E2E004604
:10085E0049524520414C41524D2050414E454C008D
:10086E00205A4F4E45202D20303120202020202090
:10087E0000205A4F4E45202D20303220202020209F
:10088E002000204649524520444554454354454492
:10089E002020002053484F52542044455445435481
:1008AE0045442000204F50454E2044455445435466
:1008BE00454420200020414C4C20544845204152B4
:1008CE0045412020200050414E454C205445535464
:1008DE00494E47204F4E0020504C45415345204530
:1008EE0056414355415445005A4F4E452D20303107
:1008FE002049534F4C415445005A4F4E452D203000
:10090E00322049534F4C415445005A4F4E452D20ED
:10091E003031204845414C544859005A4F4E452DD0
:10092E00203032204845414C544859002020424145
:10093E005454455259204C4F5720202000204348F4
:0E094E0045434B20414320535550504C590017
:06007B00E478FFF6D8FD59
:100059007900E94400601B7A0090095C780175A079
:1000690000E493F2A308B8000205A0D9F4DAF27506
:02007900A0FFE6
:100081007800E84400600A790175A000E4F309D81A
:10009100FC7800E84400600C7900900001E4F0A3D2
:0400A100D8FCD9FAB4
:0D004C0075812012082AE582600302004938
:10080E0020F71430F6148883A88220F507E6A88313
:10081E0075830022E280F7E49322E02275820022A3
:00000001FF
