:0300000002004CAF
:200008000000E2FBEAF2802C0000E0FBEAF08024E6B50202EBF62200E2B50202EBF22200DE
:20002800E0B50202EBF02230F6E0A88220F5D3EAC6F582228B822230F6E6A88220F5D980EE
:01004800CFE8
:1100A500C200C201C202C203C204C205C2060200499C
:030049000200B6FC
:2000B60012036D7F00BF0F00501390070675F080C0071205FC1206DDD0070F80E890070DB5
:2000D60075F0801205FC90072475F0801206501206DD90071175F0801205FC90071375F066
:2000F6008012068530980312051920052320062020A21D20A61A30A117E509450A600D15DE
:200116000974FFB50902150AD2A7800CC2A78008D2A775092C750A0120050E20060B20A2AF
:2001360008C296C297C294C29590070D75F0801205FC90071375F0801206503098031205CE
:200156001920A421C200C20590071175F0801205FC9007F075F0801206501206CA30983CA8
:200176001205198037D20090071175F0801205FC9007CE75F0801206501206CA309803129F
:20019600051930800C308109308206C205C202800BD2051203A930980312051920A521C2AF
:2001B60001C20690071175F0801205FC90080175F0801206501206CA30983C12051980370D
:2001D600D20190071175F0801205FC9007DF75F0801206501206CA30980312051930830C37
:2001F600308409308506C206C203800BD20612046130980312051920A41E20A51B900711A5
:2002160075F0801205FC90073575F0801206501206CA30980312051920A0031205B7309881
:200236000312051920A66E90070D75F0801205FC9007AC75F08012065090071175F0801276
:2002560005FC90074675F0801206501206CA1206CAD296D297D294D2951206CAC296C29768
:20027600C294C29590071175F0801205FC90075775F0801206501206CAD296D297D294D2F5
:20029600951206CAC296C297C294C29530A6FD30980312051920A145D295D294D296C29711
:2002B60090070D75F0801205FC9007BD75F08012065090071175F0801205FC90079B75F0B4
:2002D6008012065020A1082098051206CA80F5309803120519C295C294C296C2971206DDF5
:2002F60020052720062490070D75F0801205FC90071375F08012065090071175F08012051B
:20031600FC90073575F08012065030A245D297C296200409D29520A004D204C29590070DB1
:2003360075F0801205FC90081275F08012065090071175F0801205FC90082375F080120660
:20035600501206CA1206CA2004030200FAC2950200FAC2040200FA7590007580FF75A0FF2E
:2003760075B0FFC296C297C294C295D2A7C204C202C203C200C201C205C20675081E7509F0
:200396002C750A01750B00758920758DFD759850D28E2220001290070D75F0801205FC90C1
:2003B600074675F08012065020822590071175F0801205FC90077975F080120650D297C29E
:2003D60096C294200205D29502045EC29502045E20802590071175F0801205FC9007687595
:2003F600F080120650D296C297200206D295D2948056C295C294805020812390071175F035
:20041600801205FC90078A75F080120650D297C296C294200204D295802EC295802AC205AB
:20043600C20230830E30840B308508C297C296C294C29530A41290071175F0801205FC9031
:2004560007F075F0801206500206CA20011290070D75F0801205FC90075775F08012065066
:2004760020852590071175F0801205FC90077975F080120650D297C296C294200305D295F9
:20049600020516C29502051620832590071175F0801205FC90076875F080120650D296C2D7
:2004B60097200306D295D2948056C295C294805020842390071175F0801205FC90078A7549
:2004D600F080120650D297C296C294200304D295802EC295802AC206C20330800E30810BD3
:2004F600308208C297C296C294C29530A51290071175F0801205FC90080175F08012065061
:200516000206CAAF99C2988F9910990280FBBF00028032BF0102803CBF02028046BF0302C5
:200536008055BF40028046BFAA02800ABFBB02800BBFFF5C805085A0820205AE74C04580CE
:20055600F5820205AEC0071205B7D0078F9910990280FB22C0071205B7D0078F991099023E
:2005760080FB22C2A18F9910990280FB22D2018F9910990280FB22C0071205B7D0078F991E
:2005960010990280FB228F9910990280FB02036D8F9910990280FB2285829910990280FB07
:2005B60022D202D203D204C295C29422AF82740F5FF50DEFC4540FF50C22AF82E59054F07D
:2005D6004FF590D2871206DDC2870206DDAF82E59054F04FF590D28700C287000000000055
:2005F600000000D28722AD82AE83AFF07C00EC2DF9E43EFA8F0389828A838BF01206E6FBA3
:2006160060260CC2868B82C007C006C005C0041205C2850C821205D0850D821205D0D00425
:20063600D005D006D00780C622D2861205C2850C821205E3850D820205E3AD82AE83AFF07F
:200656007C00EC2DF9E43EFA8F0389828A838BF01206E6FB60180C8B82C007C006C005C019
:200676000412063FD004D005D006D00780D422AD82AE83AFF07C00EC2DF9E43EFA8F038979
:20069600828A838BF01206E6FB601B0C8B82C007C006C005C00412063F1206BDD004D005C2
:2006B600D006D00780D1227F017EFF7DFFDDFEDEFADFF6227F087EFF7DFFDDFEDEFADFF6D9
:1006D600309803020519227F077E0FDEFEDFFA221D
:2007060020280C0106800001068000C0002041474E492050524F54454354494F4E002057D4
:20072600454C434F4D4520544F202E2E2E2E004649524520414C41524D2050414E454C0020
:20074600205A4F4E45202D20303120202020202000205A4F4E45202D2030322020202020DE
:20076600200020464952452044455445435445442020002053484F525420444554454354E2
:2007860045442000204F50454E20444554454354454420200020414C4C2054484520415209
:2007A60045412020200050414E454C2054455354494E47204F4E0020504C454153452045A3
:2007C60056414355415445005A4F4E452D2030312049534F4C415445005A4F4E452D203036
:2007E600322049534F4C415445005A4F4E452D203031204845414C544859005A4F4E452D0E
:20080600203032204845414C54485900202042415454455259204C4F5720202000204348A9
:0E08260045434B20414320535550504C590040
:06007B00E478FFF6D8FD59
:200059007900E94400601B7A00900834780175A000E493F2A308B8000205A0D9F4DAF27511
:02007900A0FFE6
:200081007800E84400600A790175A000E4F309D8FC7800E84400600C7900900001E4F0A37D
:0400A100D8FCD9FAB4
:0D004C00758120120702E582600302004961
:1C06E60020F71430F6148883A88220F507E6A88375830022E280F7E49322E02223
:0407020075820022DA
:00000001FF
